{
  "_format": "hh-sol-artifact-1",
  "contractName": "OPVerifier",
  "sourceName": "contracts/OPVerifier.sol",
  "abi": [
    {
      "inputs": [
        {
          "internalType": "uint256",
          "name": "maximumAge",
          "type": "uint256"
        }
      ],
      "stateMutability": "nonpayable",
      "type": "constructor"
    },
    {
      "inputs": [
        {
          "internalType": "address",
          "name": "",
          "type": "address"
        }
      ],
      "name": "AccountNotFound",
      "type": "error"
    },
    {
      "inputs": [],
      "name": "DisputeGameNotEnabled",
      "type": "error"
    },
    {
      "inputs": [
        {
          "internalType": "uint256",
          "name": "disputeGameIndex",
          "type": "uint256"
        },
        {
          "internalType": "uint256",
          "name": "age",
          "type": "uint256"
        },
        {
          "internalType": "uint256",
          "name": "maxAge",
          "type": "uint256"
        }
      ],
      "name": "GameExpired",
      "type": "error"
    },
    {
      "inputs": [
        {
          "internalType": "uint256",
          "name": "disputeGameIndex",
          "type": "uint256"
        }
      ],
      "name": "GameInvalid",
      "type": "error"
    },
    {
      "inputs": [
        {
          "internalType": "uint256",
          "name": "disputeGameIndex",
          "type": "uint256"
        },
        {
          "internalType": "uint256",
          "name": "age",
          "type": "uint256"
        },
        {
          "internalType": "uint256",
          "name": "minAge",
          "type": "uint256"
        }
      ],
      "name": "GameTooEarly",
      "type": "error"
    },
    {
      "inputs": [
        {
          "internalType": "uint256",
          "name": "disputeGameIndex",
          "type": "uint256"
        },
        {
          "internalType": "GameType",
          "name": "expected",
          "type": "uint32"
        },
        {
          "internalType": "GameType",
          "name": "actual",
          "type": "uint32"
        }
      ],
      "name": "GameTypeMismatch",
      "type": "error"
    },
    {
      "inputs": [],
      "name": "InvalidInitialization",
      "type": "error"
    },
    {
      "inputs": [],
      "name": "L2OutputOracleDeprecated",
      "type": "error"
    },
    {
      "inputs": [],
      "name": "NotAdmin",
      "type": "error"
    },
    {
      "inputs": [],
      "name": "NotInitializing",
      "type": "error"
    },
    {
      "inputs": [
        {
          "internalType": "uint256",
          "name": "l2OutputIndex",
          "type": "uint256"
        },
        {
          "internalType": "uint256",
          "name": "age",
          "type": "uint256"
        },
        {
          "internalType": "uint256",
          "name": "maxAge",
          "type": "uint256"
        }
      ],
      "name": "OutputExpired",
      "type": "error"
    },
    {
      "inputs": [
        {
          "internalType": "enum OPWitnessProofType",
          "name": "proofType",
          "type": "uint8"
        },
        {
          "internalType": "uint256",
          "name": "index",
          "type": "uint256"
        },
        {
          "internalType": "bytes32",
          "name": "expected",
          "type": "bytes32"
        },
        {
          "internalType": "bytes32",
          "name": "actual",
          "type": "bytes32"
        }
      ],
      "name": "OutputRootMismatch",
      "type": "error"
    },
    {
      "inputs": [
        {
          "internalType": "uint256",
          "name": "l2OutputIndex",
          "type": "uint256"
        },
        {
          "internalType": "uint256",
          "name": "age",
          "type": "uint256"
        },
        {
          "internalType": "uint256",
          "name": "minAge",
          "type": "uint256"
        }
      ],
      "name": "OutputTooEarly",
      "type": "error"
    },
    {
      "inputs": [
        {
          "internalType": "uint256",
          "name": "value",
          "type": "uint256"
        },
        {
          "internalType": "uint256",
          "name": "length",
          "type": "uint256"
        }
      ],
      "name": "StringsInsufficientHexLength",
      "type": "error"
    },
    {
      "inputs": [
        {
          "internalType": "uint8",
          "name": "",
          "type": "uint8"
        }
      ],
      "name": "UnknownOpcode",
      "type": "error"
    },
    {
      "anonymous": false,
      "inputs": [
        {
          "indexed": false,
          "internalType": "uint64",
          "name": "version",
          "type": "uint64"
        }
      ],
      "name": "Initialized",
      "type": "event"
    },
    {
      "inputs": [
        {
          "internalType": "bytes",
          "name": "verifierData",
          "type": "bytes"
        }
      ],
      "name": "gatewayURLs",
      "outputs": [
        {
          "internalType": "string[]",
          "name": "",
          "type": "string[]"
        }
      ],
      "stateMutability": "view",
      "type": "function"
    },
    {
      "inputs": [
        {
          "internalType": "address",
          "name": "target",
          "type": "address"
        },
        {
          "internalType": "bytes32[]",
          "name": "commands",
          "type": "bytes32[]"
        },
        {
          "internalType": "bytes[]",
          "name": "constants",
          "type": "bytes[]"
        },
        {
          "internalType": "bytes",
          "name": "proof",
          "type": "bytes"
        },
        {
          "internalType": "bytes",
          "name": "verifierData",
          "type": "bytes"
        }
      ],
      "name": "getStorageValues",
      "outputs": [
        {
          "internalType": "bytes[]",
          "name": "values",
          "type": "bytes[]"
        }
      ],
      "stateMutability": "view",
      "type": "function"
    },
    {
      "inputs": [],
      "name": "maxAge",
      "outputs": [
        {
          "internalType": "uint256",
          "name": "",
          "type": "uint256"
        }
      ],
      "stateMutability": "view",
      "type": "function"
    },
    {
      "inputs": [
        {
          "internalType": "string[]",
          "name": "urls",
          "type": "string[]"
        }
      ],
      "name": "setGatewayUrls",
      "outputs": [],
      "stateMutability": "nonpayable",
      "type": "function"
    }
  ],
  "bytecode": "0x60a0604052348015600f57600080fd5b5060405161392a38038061392a833981016040819052602c916033565b608052604b565b600060208284031215604457600080fd5b5051919050565b6080516138b7610073600039600081816056015281816103cb015261040801526138b76000f3fe608060405234801561001057600080fd5b506004361061004c5760003560e01c8063687043c5146100515780638e0ff0781461008b578063c76c3dac146100ab578063d5a3d184146100cb575b600080fd5b6100787f000000000000000000000000000000000000000000000000000000000000000081565b6040519081526020015b60405180910390f35b61009e610099366004612d30565b6100e0565b6040516100829190612e4f565b6100be6100b9366004612eb4565b6101fd565b6040516100829190612ee8565b6100de6100d9366004612f41565b610301565b005b6060600080838060200190518101906100f9919061300a565b91509150600080868060200190518101906101149190613192565b9150915060006101278360400151610364565b905060006001845160018111156101405761014061324d565b0361015b57610154846020015187876103c0565b9050610187565b6000845160018111156101705761017061324d565b0361018757610184846020015187876103fe565b90505b8181146101bd57835160208501516040516391d633f760e01b81526101b492919085908590600401613263565b60405180910390fd5b60006101d68560400151602001518e8660000151610435565b90506101ec8d6104ff8e8e858960200151610582565b9d9c50505050505050505050505050565b606060008083806020019051810190610216919061300a565b60008054929450909250816001600160401b0381111561023857610238612b18565b60405190808252806020026020018201604052801561026b57816020015b60608152602001906001900390816102565790505b50905060005b828110156102f7576000818154811061028c5761028c6132a1565b906000526020600020016102a8866001600160a01b03166106d1565b6102b1866106ed565b6040516020016102c39392919061330d565b6040516020818303038152906040528282815181106102e4576102e46132a1565b6020908102919091010152600101610271565b5095945050505050565b7fb53127684a568b3173ae13b9f8a6016e243e63b6e8ee1178d6a717850b5d610354336001600160a01b0382161461034c57604051637bfa4b9f60e01b815260040160405180910390fd5b815161035f906000906020850190612a3e565b505050565b600081600001518260200151836040015184606001516040516020016103a3949392919093845260208401929092526040830152606082015260800190565b604051602081830303815290604052805190602001209050919050565b6000806103ef8486857f0000000000000000000000000000000000000000000000000000000000000000610780565b509193505050505b9392505050565b600061042c8385847f000000000000000000000000000000000000000000000000000000000000000061084e565b51949350505050565b6000808280602001905181019061044c91906133cc565b6040516bffffffffffffffffffffffff19606087901b166020820152909150600090819061048d9060340160405160208183030381529060405284896109c1565b91509150816104ba576040516353807e1960e11b81526001600160a01b03871660048201526024016101b4565b60006104c5826109ea565b90506104ea816002815181106104dd576104dd6132a1565b60200260200101516109fd565b6104f390613400565b98975050505050505050565b606060008380602001905181019061051791906133cc565b90506000806105488760405160200161053291815260200190565b60405160208183030381529060405284876109c1565b915091508161056b5760405180602001604052806000815250935050505061057a565b61057481610b29565b93505050505b949350505050565b6060600085516001600160401b0381111561059f5761059f612b18565b6040519080825280602002602001820160405280156105d257816020015b60608152602001906001900390816105bd5790505b50915060005b86518110156106c55760008782815181106105f5576105f56132a1565b6020026020010151905060008061060d838a88610b3c565b915091508161068a576106478c8c8a848b8a6106288161343a565b9b508151811061063a5761063a6132a1565b6020026020010151610c77565b60405160200161065991815260200190565b60405160208183030381529060405286858151811061067a5761067a6132a1565b60200260200101819052506106ba565b6106988c8c8a848b8a610cb9565b8786815181106106aa576106aa6132a1565b6020026020010181975082905250505b5050506001016105d8565b50509695505050505050565b60606106e76001600160a01b0383166014610e0d565b92915050565b606060006106fa83610f84565b60010190506000816001600160401b0381111561071957610719612b18565b6040519080825280601f01601f191660200182016040528015610743576020820181803683370190505b5090508181016020015b600019016f181899199a1a9b1b9c1cb0b131b232b360811b600a86061a8153600a850494508461074d575b509392505050565b6000806000806000886001600160a01b0316633c9f397c6040518163ffffffff1660e01b8152600401602060405180830381865afa1580156107c6573d6000803e3d6000fd5b505050506040513d601f19601f820116820180604052508101906107ea9190613465565b90506107f88989898961105c565b9297509095509350915063ffffffff80851690821614610842576040516323fa115960e21b81526004810189905263ffffffff8083166024830152851660448201526064016101b4565b50945094509450949050565b604080516060810182526000808252602082018190529181018290529061087486611246565b60405163a25ae55760e01b8152600481018790529091506000906001600160a01b0383169063a25ae55790602401606060405180830381865afa1580156108bf573d6000803e3d6000fd5b505050506040513d601f19601f820116820180604052508101906108e39190613497565b90508481602001516001600160801b0316426108ff91906134e4565b1015610948578581602001516001600160801b03164261091f91906134e4565b6040516328711f9f60e01b815260048101929092526024820152604481018690526064016101b4565b60008411801561096f57508381602001516001600160801b03164261096d91906134e4565b115b156109b7578581602001516001600160801b03164261098e91906134e4565b60405163107b0e1960e01b815260048101929092526024820152604481018590526064016101b4565b9695505050505050565b6000606060006109d0866112e6565b90506109dd818686611318565b9250925050935093915050565b60606106e76109f883611404565b611457565b60606000806000610a0d8561167a565b919450925090506000816001811115610a2857610a2861324d565b14610a9b5760405162461bcd60e51b815260206004820152603960248201527f524c505265616465723a206465636f646564206974656d207479706520666f7260448201527f206279746573206973206e6f7420612064617461206974656d0000000000000060648201526084016101b4565b610aa582846134f7565b855114610b115760405162461bcd60e51b815260206004820152603460248201527f524c505265616465723a2062797465732076616c756520636f6e7461696e732060448201527330b71034b73b30b634b2103932b6b0b4b73232b960611b60648201526084016101b4565b610b2085602001518484611d3d565b95945050505050565b60606106e7610b3783611404565b6109fd565b6001600084811a8281161515925b6020811015610c6d576000878260208110610b6757610b676132a1565b1a905060fe198101610b795750610c6d565b60e08116601f821681610bd557888160ff1681518110610b9b57610b9b6132a1565b602002602001015186604051602001610bb592919061350a565b6040516020818303038152906040528051906020012060001c9550610c56565b601f1960ff831601610bf657878160ff1681518110610b9b57610b9b6132a1565b603f1960ff831601610c3857610c27898260ff1681518110610c1a57610c1a6132a1565b6020026020010151611dd0565b610c3190876134f7565b9550610c56565b604051632cde2db560e21b815260ff841660048201526024016101b4565b505050600181610c6691906134f7565b9050610b4a565b5050935093915050565b600080610c878787878787611e0c565b905080516008610c97919061352c565b610ca3906101006134e4565b610cac82613400565b901c979650505050505050565b6060600080610ce2898989898989610cd08161343a565b9a508151811061063a5761063a6132a1565b905060018082169003610dbe576040805160208101889052016040516020818303038152906040528051906020012060001c9550600181901c6001600160401b03811115610d3257610d32612b18565b6040519080825280601f01601f191660200182016040528015610d5c576020820181803683370190505b50925060005b8351811015610db357610d766020826134f7565b90506000610da98b8b8b8b610d8a8161343a565b9c508b8b610d978161343a565b9c508151811061063a5761063a6132a1565b8583015250610d62565b50839150610e029050565b600060018260ff16901c9050610dfa60008284604051602001610de391815260200190565b60408051601f198184030181529190529190611e1e565b859350935050505b965096945050505050565b6060826000610e1d84600261352c565b610e289060026134f7565b6001600160401b03811115610e3f57610e3f612b18565b6040519080825280601f01601f191660200182016040528015610e69576020820181803683370190505b509050600360fc1b81600081518110610e8457610e846132a1565b60200101906001600160f81b031916908160001a905350600f60fb1b81600181518110610eb357610eb36132a1565b60200101906001600160f81b031916908160001a9053506000610ed785600261352c565b610ee29060016134f7565b90505b6001811115610f5a576f181899199a1a9b1b9c1cb0b131b232b360811b83600f1660108110610f1657610f166132a1565b1a60f81b828281518110610f2c57610f2c6132a1565b60200101906001600160f81b031916908160001a90535060049290921c91610f5381613543565b9050610ee5565b50811561057a5760405163e22e27eb60e01b815260048101869052602481018590526044016101b4565b60008072184f03e93ff9f4daa797ed6e38ed64bf6a1f0160401b8310610fc35772184f03e93ff9f4daa797ed6e38ed64bf6a1f0160401b830492506040015b6d04ee2d6d415b85acef81000000008310610fef576d04ee2d6d415b85acef8100000000830492506020015b662386f26fc10000831061100d57662386f26fc10000830492506010015b6305f5e1008310611025576305f5e100830492506008015b612710831061103957612710830492506004015b6064831061104b576064830492506002015b600a83106106e75760010192915050565b600080600080600061106d89611f60565b604051632ee2a87f60e21b8152600481018a90529091506000906001600160a01b0383169063bb8aa1fc90602401606060405180830381865afa1580156110b8573d6000803e3d6000fd5b505050506040513d601f19601f820116820180604052508101906110dc919061355a565b809550819350829750505050611150836001600160a01b031663bcef3b556040518163ffffffff1660e01b8152600401602060405180830381865afa158015611129573d6000803e3d6000fd5b505050506040513d601f19601f8201168201806040525081019061114d91906135b3565b90565b95506001600160401b03811693508761116985426134e4565b10156111ac57886111836001600160401b038616426134e4565b6040516366460f9d60e01b815260048101929092526024820152604481018990526064016101b4565b6000871180156111cd5750866111cb6001600160401b038616426134e4565b115b1561120f57886111e66001600160401b038616426134e4565b604051631fc476cf60e21b815260048101929092526024820152604481018890526064016101b4565b61121883612000565b15611239576040516336834a3160e21b8152600481018a90526024016101b4565b5050945094509450949050565b6000816001600160a01b0316639b5f694a6040518163ffffffff1660e01b8152600401602060405180830381865afa9250505080156112a2575060408051601f3d908101601f1916820190925261129f918101906135cc565b60015b6112bf57604051638b4df23f60e01b815260040160405180910390fd5b6001600160a01b0381166106e757604051638b4df23f60e01b815260040160405180910390fd5b6060818051906020012060405160200161130291815260200190565b6040516020818303038152906040529050919050565b60006060600061132785612087565b90506000806000611339848a8961216d565b8151929550909350915015808061134d5750815b6113a75760405162461bcd60e51b815260206004820152602560248201527f4d65726b6c65547269653a2070726f76696465642070726f6f6620697320696e6044820152641d985b1a5960da1b60648201526084016101b4565b6000816113c357604051806020016040528060008152506113ef565b6113ef866113d26001886134e4565b815181106113e2576113e26132a1565b602002602001015161270c565b805115159c909b509950505050505050505050565b604080518082019091526000808252602082015260008251116114395760405162461bcd60e51b81526004016101b4906135e9565b50604080518082019091528151815260209182019181019190915290565b606060008060006114678561167a565b9194509250905060018160018111156114825761148261324d565b146114f55760405162461bcd60e51b815260206004820152603860248201527f524c505265616465723a206465636f646564206974656d207479706520666f7260448201527f206c697374206973206e6f742061206c697374206974656d000000000000000060648201526084016101b4565b845161150183856134f7565b146115695760405162461bcd60e51b815260206004820152603260248201527f524c505265616465723a206c697374206974656d2068617320616e20696e76616044820152713634b2103230ba30903932b6b0b4b73232b960711b60648201526084016101b4565b604080516020808252610420820190925290816020015b60408051808201909152600080825260208201528152602001906001900390816115805790505093506000835b865181101561166e576000806115f36040518060400160405280858c600001516115d791906134e4565b8152602001858c602001516115ec91906134f7565b905261167a565b50915091506040518060400160405280838361160f91906134f7565b8152602001848b6020015161162491906134f7565b815250888581518110611639576116396132a1565b602090810291909101015261164f6001856134f7565b935061165b81836134f7565b61166590846134f7565b925050506115ad565b50845250919392505050565b6000806000808460000151116116a25760405162461bcd60e51b81526004016101b4906135e9565b6020840151805160001a607f81116116c7576000600160009450945094505050611d36565b60b781116118245760006116dc6080836134e4565b90508087600001511161175c5760405162461bcd60e51b815260206004820152604e602482015260008051602061386283398151915260448201527f742062652067726561746572207468616e20737472696e67206c656e6774682060648201526d2873686f727420737472696e672960901b608482015260a4016101b4565b6001838101516001600160f81b03191690821415806117895750600160ff1b6001600160f81b0319821610155b6118115760405162461bcd60e51b815260206004820152604d60248201527f524c505265616465723a20696e76616c6964207072656669782c2073696e676c60448201527f652062797465203c203078383020617265206e6f74207072656669786564202860648201526c73686f727420737472696e672960981b608482015260a4016101b4565b5060019550935060009250611d36915050565b60bf8111611a6557600061183960b7836134e4565b9050808760000151116118bc5760405162461bcd60e51b8152602060048201526051602482015260008051602061386283398151915260448201527f74206265203e207468616e206c656e677468206f6620737472696e67206c656e60648201527067746820286c6f6e6720737472696e672960781b608482015260a4016101b4565b60018301516001600160f81b03191660008190036119435760405162461bcd60e51b815260206004820152604a602482015260008051602061386283398151915260448201527f74206e6f74206861766520616e79206c656164696e67207a65726f7320286c6f6064820152696e6720737472696e672960b01b608482015260a4016101b4565b600184015160088302610100031c603781116119c65760405162461bcd60e51b8152602060048201526048602482015260008051602061386283398151915260448201527f742062652067726561746572207468616e20353520627974657320286c6f6e6760648201526720737472696e672960c01b608482015260a4016101b4565b6119d081846134f7565b895111611a485760405162461bcd60e51b815260206004820152604c602482015260008051602061386283398151915260448201527f742062652067726561746572207468616e20746f74616c206c656e677468202860648201526b6c6f6e6720737472696e672960a01b608482015260a4016101b4565b611a538360016134f7565b9750955060009450611d369350505050565b60f78111611b07576000611a7a60c0836134e4565b905080876000015111611af65760405162461bcd60e51b815260206004820152604a602482015260008051602061386283398151915260448201527f742062652067726561746572207468616e206c697374206c656e677468202873606482015269686f7274206c6973742960b01b608482015260a4016101b4565b600195509350849250611d36915050565b6000611b1460f7836134e4565b905080876000015111611b935760405162461bcd60e51b815260206004820152604d602482015260008051602061386283398151915260448201527f74206265203e207468616e206c656e677468206f66206c697374206c656e677460648201526c6820286c6f6e67206c6973742960981b608482015260a4016101b4565b60018301516001600160f81b0319166000819003611c185760405162461bcd60e51b8152602060048201526048602482015260008051602061386283398151915260448201527f74206e6f74206861766520616e79206c656164696e67207a65726f7320286c6f6064820152676e67206c6973742960c01b608482015260a4016101b4565b600184015160088302610100031c60378111611c995760405162461bcd60e51b8152602060048201526046602482015260008051602061386283398151915260448201527f742062652067726561746572207468616e20353520627974657320286c6f6e67606482015265206c6973742960d01b608482015260a4016101b4565b611ca381846134f7565b895111611d195760405162461bcd60e51b815260206004820152604a602482015260008051602061386283398151915260448201527f742062652067726561746572207468616e20746f74616c206c656e67746820286064820152696c6f6e67206c6973742960b01b608482015260a4016101b4565b611d248360016134f7565b9750955060019450611d369350505050565b9193909250565b6060816001600160401b03811115611d5757611d57612b18565b6040519080825280601f01601f191660200182016040528015611d81576020820181803683370190505b50905081156103f7576000611d9684866134f7565b90506020820160005b84811015611db7578281015182820152602001611d9f565b84811115611dc6576000858301525b5050509392505050565b60006020825110611de957611de482613400565b6106e7565b600382516020611df991906134e4565b901b611e0483613400565b901c92915050565b60606109b7868484878963ffffffff16565b60608182601f011015611e645760405162461bcd60e51b815260206004820152600e60248201526d736c6963655f6f766572666c6f7760901b60448201526064016101b4565b828284011015611ea75760405162461bcd60e51b815260206004820152600e60248201526d736c6963655f6f766572666c6f7760901b60448201526064016101b4565b81830184511015611eee5760405162461bcd60e51b8152602060048201526011602482015270736c6963655f6f75744f66426f756e647360781b60448201526064016101b4565b606082158015611f0d5760405191506000825260208201604052611f57565b6040519150601f8416801560200281840101858101878315602002848b0101015b81831015611f46578051835260209283019201611f2e565b5050858452601f01601f1916604052505b50949350505050565b6000816001600160a01b031663f2b4e6176040518163ffffffff1660e01b8152600401602060405180830381865afa925050508015611fbc575060408051601f3d908101601f19168201909252611fb9918101906135cc565b60015b611fd957604051635a23942360e11b815260040160405180910390fd5b6001600160a01b0381166106e757604051635a23942360e11b815260040160405180910390fd5b60006001826001600160a01b031663200d2ed26040518163ffffffff1660e01b8152600401602060405180830381865afa158015612042573d6000803e3d6000fd5b505050506040513d601f19601f820116820180604052508101906120669190613659565b60028111156120775761207761324d565b14806106e757506106e782612736565b80516060906000816001600160401b038111156120a6576120a6612b18565b6040519080825280602002602001820160405280156120eb57816020015b60408051808201909152606080825260208201528152602001906001900390816120c45790505b50905060005b82811015610778576040518060400160405280868381518110612116576121166132a1565b60200260200101518152602001612145878481518110612138576121386132a1565b60200260200101516109ea565b81525082828151811061215a5761215a6132a1565b60209081029190910101526001016120f1565b6000606081808061217d876128cc565b905060008660405160200161219491815260200190565b60408051601f19818403018152828201909152606080835260208301529150600090819060005b8c518110156126aa578c81815181106121d6576121d66132a1565b6020026020010151915082846121ec91906134f7565b93506121f96001886134f7565b96508360000361229a57815180516020918201206040516122499261222392910190815260200190565b604051602081830303815290604052868051602091820120825192909101919091201490565b6122955760405162461bcd60e51b815260206004820152601d60248201527f4d65726b6c65547269653a20696e76616c696420726f6f74206861736800000060448201526064016101b4565b612390565b81515160201161232057815180516020918201206040516122c49261222392910190815260200190565b6122955760405162461bcd60e51b815260206004820152602760248201527f4d65726b6c65547269653a20696e76616c6964206c6172676520696e7465726e6044820152660c2d840d0c2e6d60cb1b60648201526084016101b4565b8151855160208088019190912082519190920120146123905760405162461bcd60e51b815260206004820152602660248201527f4d65726b6c65547269653a20696e76616c696420696e7465726e616c206e6f646044820152650ca40d0c2e6d60d31b60648201526084016101b4565b61239c601060016134f7565b8260200151510361240e57855184146126aa5760008685815181106123c3576123c36132a1565b602001015160f81c60f81b60f81c9050600083602001518260ff16815181106123ee576123ee6132a1565b602002602001015190506124018161292f565b96506001945050506126a2565b6002826020015151036126495760006124268361294f565b905060008160008151811061243d5761243d6132a1565b016020015160f81c9050600061245460028361367a565b61245f9060026136aa565b90506000612470848360ff16612973565b9050600061247e8b8a612973565b9050600061248c83836129a9565b90508251825110156125065760405162461bcd60e51b815260206004820152603960248201527f4d65726b6c65547269653a20696e76616c6964206b6579206c656e677468206660448201527f6f72206c656166206f7220657874656e73696f6e206e6f64650000000000000060648201526084016101b4565b60ff85166002148061251b575060ff85166003145b15612569578083511480156125305750808251145b156125425761253f818b6134f7565b99505b604051806040016040528060018152602001600160ff1b8152509a505050505050506126aa565b60ff8516158061257c575060ff85166001145b156125e657825181146125b057604051806040016040528060018152602001600160ff1b8152509a505050505050506126aa565b6125d788602001516001815181106125ca576125ca6132a1565b602002602001015161292f565b9a5097506126a2945050505050565b60405162461bcd60e51b815260206004820152603260248201527f4d65726b6c65547269653a2072656365697665642061206e6f64652077697468604482015271040c2dc40eadcd6dcdeeedc40e0e4caccd2f60731b60648201526084016101b4565b60405162461bcd60e51b815260206004820152602860248201527f4d65726b6c65547269653a20726563656976656420616e20756e706172736561604482015267626c65206e6f646560c01b60648201526084016101b4565b6001016121bb565b50856126b68685612973565b6040805180820190915260018152600160ff1b6020918201528651908701207f56e81f171bcc55a6ff8345e692c0f86e5b48e01b996cadc001622fb5e363b4211498509850985050505050505093509350939050565b602081015180516060916106e791612726906001906134e4565b815181106104dd576104dd6132a1565b60006002826001600160a01b031663200d2ed26040518163ffffffff1660e01b8152600401602060405180830381865afa158015612778573d6000803e3d6000fd5b505050506040513d601f19601f8201168201806040525081019061279c9190613659565b60028111156127ad576127ad61324d565b036127ba57506000919050565b6001826001600160a01b0316638980e0cc6040518163ffffffff1660e01b8152600401602060405180830381865afa1580156127fa573d6000803e3d6000fd5b505050506040513d601f19601f8201168201806040525081019061281e91906135b3565b111561282c57506001919050565b6040516331bc0c2360e21b8152600060048201819052906001600160a01b0384169063c6f0308c9060240160e060405180830381865afa158015612874573d6000803e3d6000fd5b505050506040513d601f19601f8201168201806040525081019061289891906136c3565b505050505091505060006001600160a01b0316816001600160a01b0316146128c35750600192915050565b50600092915050565b606080604051905082518060011b603f8101601f1916830160405280835250602084016020830160005b83811015612924578060011b82018184015160001a8060041c8253600f8116600183015350506001016128f6565b509295945050505050565b6060602082600001511061294657611de4826109fd565b6106e782612a28565b60606106e761296e83602001516000815181106104dd576104dd6132a1565b6128cc565b60608251821061299257506040805160208101909152600081526106e7565b6103f783838486516129a491906134e4565b611e1e565b600080600083518551106129be5783516129c1565b84515b90505b8082108015612a1857508382815181106129e0576129e06132a1565b602001015160f81c60f81b6001600160f81b031916858381518110612a0757612a076132a1565b01602001516001600160f81b031916145b15610778578160010191506129c4565b60606106e7826020015160008460000151611d3d565b828054828255906000526020600020908101928215612a84579160200282015b82811115612a845782518290612a7490826137a3565b5091602001919060010190612a5e565b50612a90929150612a94565b5090565b80821115612a90576000612aa88282612ab1565b50600101612a94565b508054612abd906132b7565b6000825580601f10612acd575050565b601f016020900490600052602060002090810190612aeb9190612aee565b50565b5b80821115612a905760008155600101612aef565b6001600160a01b0381168114612aeb57600080fd5b634e487b7160e01b600052604160045260246000fd5b604051606081016001600160401b0381118282101715612b5057612b50612b18565b60405290565b604051608081016001600160401b0381118282101715612b5057612b50612b18565b604051601f8201601f191681016001600160401b0381118282101715612ba057612ba0612b18565b604052919050565b60006001600160401b03821115612bc157612bc1612b18565b5060051b60200190565b600082601f830112612bdc57600080fd5b8135612bef612bea82612ba8565b612b78565b8082825260208201915060208360051b860101925085831115612c1157600080fd5b602085015b838110156102f7578035835260209283019201612c16565b60006001600160401b03821115612c4757612c47612b18565b50601f01601f191660200190565b6000612c63612bea84612c2e565b9050828152838383011115612c7757600080fd5b828260208301376000602084830101529392505050565b600082601f830112612c9f57600080fd5b6103f783833560208501612c55565b600082601f830112612cbf57600080fd5b8135612ccd612bea82612ba8565b8082825260208201915060208360051b860101925085831115612cef57600080fd5b602085015b838110156102f75780356001600160401b03811115612d1257600080fd5b612d21886020838a0101612c8e565b84525060209283019201612cf4565b600080600080600060a08688031215612d4857600080fd5b8535612d5381612b03565b945060208601356001600160401b03811115612d6e57600080fd5b612d7a88828901612bcb565b94505060408601356001600160401b03811115612d9657600080fd5b612da288828901612cae565b93505060608601356001600160401b03811115612dbe57600080fd5b612dca88828901612c8e565b92505060808601356001600160401b03811115612de657600080fd5b612df288828901612c8e565b9150509295509295909350565b60005b83811015612e1a578181015183820152602001612e02565b50506000910152565b60008151808452612e3b816020860160208601612dff565b601f01601f19169290920160200192915050565b6000602082016020835280845180835260408501915060408160051b86010192506020860160005b82811015612ea857603f19878603018452612e93858351612e23565b94506020938401939190910190600101612e77565b50929695505050505050565b600060208284031215612ec657600080fd5b81356001600160401b03811115612edc57600080fd5b61057a84828501612c8e565b6000602082016020835280845180835260408501915060408160051b86010192506020860160005b82811015612ea857603f19878603018452612f2c858351612e23565b94506020938401939190910190600101612f10565b600060208284031215612f5357600080fd5b81356001600160401b03811115612f6957600080fd5b8201601f81018413612f7a57600080fd5b8035612f88612bea82612ba8565b8082825260208201915060208360051b850101925086831115612faa57600080fd5b602084015b83811015612fff5780356001600160401b03811115612fcd57600080fd5b8501603f81018913612fde57600080fd5b612ff089602083013560408401612c55565b84525060209283019201612faf565b509695505050505050565b6000806040838503121561301d57600080fd5b825161302881612b03565b6020939093015192949293505050565b600082601f83011261304957600080fd5b8151613057612bea82612c2e565b81815284602083860101111561306c57600080fd5b61057a826020830160208701612dff565b600082601f83011261308e57600080fd5b815161309c612bea82612ba8565b8082825260208201915060208360051b8601019250858311156130be57600080fd5b602085015b838110156102f75780516001600160401b038111156130e157600080fd5b6130f0886020838a0101613038565b845250602092830192016130c3565b60006040828403121561311157600080fd5b604080519081016001600160401b038111828210171561313357613133612b18565b806040525080915082516001600160401b0381111561315157600080fd5b61315d85828601613038565b82525060208301516001600160401b0381111561317957600080fd5b6131858582860161307d565b6020830152505092915050565b60008082840360e08112156131a657600080fd5b60c08112156131b457600080fd5b6131bc612b2e565b8451600281106131cb57600080fd5b8152602085810151908201526080603f19830112156131e957600080fd5b6131f1612b56565b6040868101518252606080880151602084015260808801518284015260a08801519083015282015260c085015190935090506001600160401b0381111561323757600080fd5b613243858286016130ff565b9150509250929050565b634e487b7160e01b600052602160045260246000fd5b608081016002861061328557634e487b7160e01b600052602160045260246000fd5b9481526020810193909352604083019190915260609091015290565b634e487b7160e01b600052603260045260246000fd5b600181811c908216806132cb57607f821691505b6020821081036132eb57634e487b7160e01b600052602260045260246000fd5b50919050565b60008151613303818560208601612dff565b9290920192915050565b600080855461331b816132b7565b600182168015613332576001811461334757613377565b60ff1983168652811515820286019350613377565b88600052602060002060005b8381101561336f57815488820152600190910190602001613353565b505081860193505b5050602f60f81b82525061338e60018201866132f1565b602f60f81b815290506133a460018201856132f1565b7417bdb9b2b73232b93e97bdb230ba30be973539b7b760591b81526015019695505050505050565b6000602082840312156133de57600080fd5b81516001600160401b038111156133f457600080fd5b61057a8482850161307d565b805160208083015191908110156132eb5760001960209190910360031b1b16919050565b634e487b7160e01b600052601160045260246000fd5b60006001820161344c5761344c613424565b5060010190565b63ffffffff81168114612aeb57600080fd5b60006020828403121561347757600080fd5b81516103f781613453565b6001600160801b0381168114612aeb57600080fd5b600060608284031280156134aa57600080fd5b506134b3612b2e565b8251815260208301516134c581613482565b602082015260408301516134d881613482565b60408201529392505050565b818103818111156106e7576106e7613424565b808201808211156106e7576106e7613424565b6000835161351c818460208801612dff565b9190910191825250602001919050565b80820281158282048414176106e7576106e7613424565b60008161355257613552613424565b506000190190565b60008060006060848603121561356f57600080fd5b835161357a81613453565b60208501519093506001600160401b038116811461359757600080fd5b60408501519092506135a881612b03565b809150509250925092565b6000602082840312156135c557600080fd5b5051919050565b6000602082840312156135de57600080fd5b81516103f781612b03565b6020808252604a908201527f524c505265616465723a206c656e677468206f6620616e20524c50206974656d60408201527f206d7573742062652067726561746572207468616e207a65726f20746f206265606082015269206465636f6461626c6560b01b608082015260a00190565b60006020828403121561366b57600080fd5b8151600381106103f757600080fd5b600060ff83168061369b57634e487b7160e01b600052601260045260246000fd5b8060ff84160691505092915050565b60ff82811682821603908111156106e7576106e7613424565b600080600080600080600060e0888a0312156136de57600080fd5b87516136e981613453565b60208901519097506136fa81612b03565b604089015190965061370b81612b03565b606089015190955061371c81613482565b608089015160a08a0151919550935061373481613482565b60c089015190925061374581613482565b8091505092959891949750929550565b601f82111561035f57806000526020600020601f840160051c8101602085101561377c5750805b601f840160051c820191505b8181101561379c5760008155600101613788565b5050505050565b81516001600160401b038111156137bc576137bc612b18565b6137d0816137ca84546132b7565b84613755565b6020601f82116001811461380457600083156137ec5750848201515b600019600385901b1c1916600184901b17845561379c565b600084815260208120601f198516915b828110156138345787850151825560209485019460019092019101613814565b50848210156138525786840151600019600387901b60f8161c191681555b50505050600190811b0190555056fe524c505265616465723a206c656e677468206f6620636f6e74656e74206d7573a2646970667358221220d4644e9d25e411fbef94ff7e9ab34634227adbfc0650d05c17d370b6c740e90e64736f6c634300081c0033",
  "linkReferences": {},
  "deployedLinkReferences": {}
}