{
  "_format": "hh-sol-artifact-1",
  "contractName": "OPVerifier",
  "sourceName": "contracts/OPVerifier.sol",
  "abi": [
    {
      "inputs": [
        {
          "internalType": "uint256",
          "name": "maximumAge",
          "type": "uint256"
        }
      ],
      "stateMutability": "nonpayable",
      "type": "constructor"
    },
    {
      "inputs": [
        {
          "internalType": "address",
          "name": "",
          "type": "address"
        }
      ],
      "name": "AccountNotFound",
      "type": "error"
    },
    {
      "inputs": [],
      "name": "DisputeGameNotEnabled",
      "type": "error"
    },
    {
      "inputs": [
        {
          "internalType": "uint256",
          "name": "disputeGameIndex",
          "type": "uint256"
        },
        {
          "internalType": "uint256",
          "name": "age",
          "type": "uint256"
        },
        {
          "internalType": "uint256",
          "name": "maxAge",
          "type": "uint256"
        }
      ],
      "name": "GameExpired",
      "type": "error"
    },
    {
      "inputs": [
        {
          "internalType": "uint256",
          "name": "disputeGameIndex",
          "type": "uint256"
        }
      ],
      "name": "GameInvalid",
      "type": "error"
    },
    {
      "inputs": [
        {
          "internalType": "uint256",
          "name": "disputeGameIndex",
          "type": "uint256"
        },
        {
          "internalType": "uint256",
          "name": "age",
          "type": "uint256"
        },
        {
          "internalType": "uint256",
          "name": "minAge",
          "type": "uint256"
        }
      ],
      "name": "GameTooEarly",
      "type": "error"
    },
    {
      "inputs": [
        {
          "internalType": "uint256",
          "name": "disputeGameIndex",
          "type": "uint256"
        },
        {
          "internalType": "GameType",
          "name": "expected",
          "type": "uint32"
        },
        {
          "internalType": "GameType",
          "name": "actual",
          "type": "uint32"
        }
      ],
      "name": "GameTypeMismatch",
      "type": "error"
    },
    {
      "inputs": [],
      "name": "InvalidInitialization",
      "type": "error"
    },
    {
      "inputs": [],
      "name": "L2OutputOracleDeprecated",
      "type": "error"
    },
    {
      "inputs": [],
      "name": "NotInitializing",
      "type": "error"
    },
    {
      "inputs": [
        {
          "internalType": "uint256",
          "name": "l2OutputIndex",
          "type": "uint256"
        },
        {
          "internalType": "uint256",
          "name": "age",
          "type": "uint256"
        },
        {
          "internalType": "uint256",
          "name": "maxAge",
          "type": "uint256"
        }
      ],
      "name": "OutputExpired",
      "type": "error"
    },
    {
      "inputs": [
        {
          "internalType": "enum OPWitnessProofType",
          "name": "proofType",
          "type": "uint8"
        },
        {
          "internalType": "uint256",
          "name": "index",
          "type": "uint256"
        },
        {
          "internalType": "bytes32",
          "name": "expected",
          "type": "bytes32"
        },
        {
          "internalType": "bytes32",
          "name": "actual",
          "type": "bytes32"
        }
      ],
      "name": "OutputRootMismatch",
      "type": "error"
    },
    {
      "inputs": [
        {
          "internalType": "uint256",
          "name": "l2OutputIndex",
          "type": "uint256"
        },
        {
          "internalType": "uint256",
          "name": "age",
          "type": "uint256"
        },
        {
          "internalType": "uint256",
          "name": "minAge",
          "type": "uint256"
        }
      ],
      "name": "OutputTooEarly",
      "type": "error"
    },
    {
      "inputs": [
        {
          "internalType": "uint256",
          "name": "value",
          "type": "uint256"
        },
        {
          "internalType": "uint256",
          "name": "length",
          "type": "uint256"
        }
      ],
      "name": "StringsInsufficientHexLength",
      "type": "error"
    },
    {
      "inputs": [
        {
          "internalType": "uint8",
          "name": "",
          "type": "uint8"
        }
      ],
      "name": "UnknownOpcode",
      "type": "error"
    },
    {
      "anonymous": false,
      "inputs": [
        {
          "indexed": false,
          "internalType": "uint64",
          "name": "version",
          "type": "uint64"
        }
      ],
      "name": "Initialized",
      "type": "event"
    },
    {
      "inputs": [
        {
          "internalType": "bytes",
          "name": "verifierData",
          "type": "bytes"
        }
      ],
      "name": "gatewayURLs",
      "outputs": [
        {
          "internalType": "string[]",
          "name": "",
          "type": "string[]"
        }
      ],
      "stateMutability": "view",
      "type": "function"
    },
    {
      "inputs": [
        {
          "internalType": "address",
          "name": "target",
          "type": "address"
        },
        {
          "internalType": "bytes32[]",
          "name": "commands",
          "type": "bytes32[]"
        },
        {
          "internalType": "bytes[]",
          "name": "constants",
          "type": "bytes[]"
        },
        {
          "internalType": "bytes",
          "name": "proof",
          "type": "bytes"
        },
        {
          "internalType": "bytes",
          "name": "verifierData",
          "type": "bytes"
        }
      ],
      "name": "getStorageValues",
      "outputs": [
        {
          "internalType": "bytes[]",
          "name": "values",
          "type": "bytes[]"
        }
      ],
      "stateMutability": "view",
      "type": "function"
    },
    {
      "inputs": [
        {
          "internalType": "string[]",
          "name": "urls",
          "type": "string[]"
        }
      ],
      "name": "initialize",
      "outputs": [],
      "stateMutability": "nonpayable",
      "type": "function"
    },
    {
      "inputs": [],
      "name": "maxAge",
      "outputs": [
        {
          "internalType": "uint256",
          "name": "",
          "type": "uint256"
        }
      ],
      "stateMutability": "view",
      "type": "function"
    }
  ],
  "bytecode": "0x60a0604052348015600f57600080fd5b506040516139e13803806139e1833981016040819052602c916033565b608052604b565b600060208284031215604457600080fd5b5051919050565b60805161396e6100736000396000818160560152818161048101526104be015261396e6000f3fe608060405234801561001057600080fd5b506004361061004c5760003560e01c8063687043c514610051578063893c3b4c1461008b5780638e0ff078146100a0578063c76c3dac146100c0575b600080fd5b6100787f000000000000000000000000000000000000000000000000000000000000000081565b6040519081526020015b60405180910390f35b61009e610099366004612cd1565b6100e0565b005b6100b36100ae366004612eaf565b6101f9565b6040516100829190612fce565b6100d36100ce366004613033565b610316565b6040516100829190613067565b7ff0c57e16840df040f15088dc2f81fe391c3923bec73e23a9662efc9c229c6a008054600160401b810460ff1615906001600160401b03166000811580156101255750825b90506000826001600160401b031660011480156101415750303b155b90508115801561014f575080155b1561016d5760405163f92ee8a960e01b815260040160405180910390fd5b845467ffffffffffffffff19166001178555831561019757845460ff60401b1916600160401b1785555b85516101aa906000906020890190612af4565b5083156101f157845460ff60401b19168555604051600181527fc7f505b2f371ae2175ee4913f4499e1f2633a7b5936321eed1cdaeb6115181d29060200160405180910390a15b505050505050565b60606000808380602001905181019061021291906130c0565b915091506000808680602001905181019061022d9190613248565b915091506000610240836040015161041a565b9050600060018451600181111561025957610259613303565b036102745761026d84602001518787610476565b90506102a0565b60008451600181111561028957610289613303565b036102a05761029d846020015187876104b4565b90505b8181146102d657835160208501516040516391d633f760e01b81526102cd92919085908590600401613319565b60405180910390fd5b60006102ef8560400151602001518e86600001516104eb565b90506103058d6105b58e8e858960200151610638565b9d9c50505050505050505050505050565b60606000808380602001905181019061032f91906130c0565b60008054929450909250816001600160401b0381111561035157610351612bb9565b60405190808252806020026020018201604052801561038457816020015b606081526020019060019003908161036f5790505b50905060005b8281101561041057600081815481106103a5576103a5613357565b906000526020600020016103c1866001600160a01b0316610787565b6103ca866107a3565b6040516020016103dc939291906133c3565b6040516020818303038152906040528282815181106103fd576103fd613357565b602090810291909101015260010161038a565b5095945050505050565b60008160000151826020015183604001518460600151604051602001610459949392919093845260208401929092526040830152606082015260800190565b604051602081830303815290604052805190602001209050919050565b6000806104a58486857f0000000000000000000000000000000000000000000000000000000000000000610836565b509193505050505b9392505050565b60006104e28385847f0000000000000000000000000000000000000000000000000000000000000000610904565b51949350505050565b600080828060200190518101906105029190613482565b6040516bffffffffffffffffffffffff19606087901b1660208201529091506000908190610543906034016040516020818303038152906040528489610a77565b9150915081610570576040516353807e1960e11b81526001600160a01b03871660048201526024016102cd565b600061057b82610aa0565b90506105a08160028151811061059357610593613357565b6020026020010151610ab3565b6105a9906134b6565b98975050505050505050565b60606000838060200190518101906105cd9190613482565b90506000806105fe876040516020016105e891815260200190565b6040516020818303038152906040528487610a77565b915091508161062157604051806020016040528060008152509350505050610630565b61062a81610bdf565b93505050505b949350505050565b6060600085516001600160401b0381111561065557610655612bb9565b60405190808252806020026020018201604052801561068857816020015b60608152602001906001900390816106735790505b50915060005b865181101561077b5760008782815181106106ab576106ab613357565b602002602001015190506000806106c3838a88610bf2565b9150915081610740576106fd8c8c8a848b8a6106de816134f0565b9b50815181106106f0576106f0613357565b6020026020010151610d2d565b60405160200161070f91815260200190565b60405160208183030381529060405286858151811061073057610730613357565b6020026020010181905250610770565b61074e8c8c8a848b8a610d6f565b87868151811061076057610760613357565b6020026020010181975082905250505b50505060010161068e565b50509695505050505050565b606061079d6001600160a01b0383166014610ec3565b92915050565b606060006107b08361103a565b60010190506000816001600160401b038111156107cf576107cf612bb9565b6040519080825280601f01601f1916602001820160405280156107f9576020820181803683370190505b5090508181016020015b600019016f181899199a1a9b1b9c1cb0b131b232b360811b600a86061a8153600a8504945084610803575b509392505050565b6000806000806000886001600160a01b0316633c9f397c6040518163ffffffff1660e01b8152600401602060405180830381865afa15801561087c573d6000803e3d6000fd5b505050506040513d601f19601f820116820180604052508101906108a0919061351b565b90506108ae89898989611112565b9297509095509350915063ffffffff808516908216146108f8576040516323fa115960e21b81526004810189905263ffffffff8083166024830152851660448201526064016102cd565b50945094509450949050565b604080516060810182526000808252602082018190529181018290529061092a866112fc565b60405163a25ae55760e01b8152600481018790529091506000906001600160a01b0383169063a25ae55790602401606060405180830381865afa158015610975573d6000803e3d6000fd5b505050506040513d601f19601f82011682018060405250810190610999919061354d565b90508481602001516001600160801b0316426109b5919061359a565b10156109fe578581602001516001600160801b0316426109d5919061359a565b6040516328711f9f60e01b815260048101929092526024820152604481018690526064016102cd565b600084118015610a2557508381602001516001600160801b031642610a23919061359a565b115b15610a6d578581602001516001600160801b031642610a44919061359a565b60405163107b0e1960e01b815260048101929092526024820152604481018590526064016102cd565b9695505050505050565b600060606000610a868661139c565b9050610a938186866113ce565b9250925050935093915050565b606061079d610aae836114ba565b61150d565b60606000806000610ac385611730565b919450925090506000816001811115610ade57610ade613303565b14610b515760405162461bcd60e51b815260206004820152603960248201527f524c505265616465723a206465636f646564206974656d207479706520666f7260448201527f206279746573206973206e6f7420612064617461206974656d0000000000000060648201526084016102cd565b610b5b82846135ad565b855114610bc75760405162461bcd60e51b815260206004820152603460248201527f524c505265616465723a2062797465732076616c756520636f6e7461696e732060448201527330b71034b73b30b634b2103932b6b0b4b73232b960611b60648201526084016102cd565b610bd685602001518484611df3565b95945050505050565b606061079d610bed836114ba565b610ab3565b6001600084811a8281161515925b6020811015610d23576000878260208110610c1d57610c1d613357565b1a905060fe198101610c2f5750610d23565b60e08116601f821681610c8b57888160ff1681518110610c5157610c51613357565b602002602001015186604051602001610c6b9291906135c0565b6040516020818303038152906040528051906020012060001c9550610d0c565b601f1960ff831601610cac57878160ff1681518110610c5157610c51613357565b603f1960ff831601610cee57610cdd898260ff1681518110610cd057610cd0613357565b6020026020010151611e86565b610ce790876135ad565b9550610d0c565b604051632cde2db560e21b815260ff841660048201526024016102cd565b505050600181610d1c91906135ad565b9050610c00565b5050935093915050565b600080610d3d8787878787611ec2565b905080516008610d4d91906135e2565b610d599061010061359a565b610d62826134b6565b901c979650505050505050565b6060600080610d98898989898989610d86816134f0565b9a50815181106106f0576106f0613357565b905060018082169003610e74576040805160208101889052016040516020818303038152906040528051906020012060001c9550600181901c6001600160401b03811115610de857610de8612bb9565b6040519080825280601f01601f191660200182016040528015610e12576020820181803683370190505b50925060005b8351811015610e6957610e2c6020826135ad565b90506000610e5f8b8b8b8b610e40816134f0565b9c508b8b610e4d816134f0565b9c50815181106106f0576106f0613357565b8583015250610e18565b50839150610eb89050565b600060018260ff16901c9050610eb060008284604051602001610e9991815260200190565b60408051601f198184030181529190529190611ed4565b859350935050505b965096945050505050565b6060826000610ed38460026135e2565b610ede9060026135ad565b6001600160401b03811115610ef557610ef5612bb9565b6040519080825280601f01601f191660200182016040528015610f1f576020820181803683370190505b509050600360fc1b81600081518110610f3a57610f3a613357565b60200101906001600160f81b031916908160001a905350600f60fb1b81600181518110610f6957610f69613357565b60200101906001600160f81b031916908160001a9053506000610f8d8560026135e2565b610f989060016135ad565b90505b6001811115611010576f181899199a1a9b1b9c1cb0b131b232b360811b83600f1660108110610fcc57610fcc613357565b1a60f81b828281518110610fe257610fe2613357565b60200101906001600160f81b031916908160001a90535060049290921c91611009816135f9565b9050610f9b565b5081156106305760405163e22e27eb60e01b815260048101869052602481018590526044016102cd565b60008072184f03e93ff9f4daa797ed6e38ed64bf6a1f0160401b83106110795772184f03e93ff9f4daa797ed6e38ed64bf6a1f0160401b830492506040015b6d04ee2d6d415b85acef810000000083106110a5576d04ee2d6d415b85acef8100000000830492506020015b662386f26fc1000083106110c357662386f26fc10000830492506010015b6305f5e10083106110db576305f5e100830492506008015b61271083106110ef57612710830492506004015b60648310611101576064830492506002015b600a831061079d5760010192915050565b600080600080600061112389612016565b604051632ee2a87f60e21b8152600481018a90529091506000906001600160a01b0383169063bb8aa1fc90602401606060405180830381865afa15801561116e573d6000803e3d6000fd5b505050506040513d601f19601f820116820180604052508101906111929190613610565b809550819350829750505050611206836001600160a01b031663bcef3b556040518163ffffffff1660e01b8152600401602060405180830381865afa1580156111df573d6000803e3d6000fd5b505050506040513d601f19601f820116820180604052508101906112039190613669565b90565b95506001600160401b03811693508761121f854261359a565b101561126257886112396001600160401b0386164261359a565b6040516366460f9d60e01b815260048101929092526024820152604481018990526064016102cd565b6000871180156112835750866112816001600160401b0386164261359a565b115b156112c5578861129c6001600160401b0386164261359a565b604051631fc476cf60e21b815260048101929092526024820152604481018890526064016102cd565b6112ce836120b6565b156112ef576040516336834a3160e21b8152600481018a90526024016102cd565b5050945094509450949050565b6000816001600160a01b0316639b5f694a6040518163ffffffff1660e01b8152600401602060405180830381865afa925050508015611358575060408051601f3d908101601f1916820190925261135591810190613682565b60015b61137557604051638b4df23f60e01b815260040160405180910390fd5b6001600160a01b03811661079d57604051638b4df23f60e01b815260040160405180910390fd5b606081805190602001206040516020016113b891815260200190565b6040516020818303038152906040529050919050565b6000606060006113dd8561213d565b905060008060006113ef848a89612223565b815192955090935091501580806114035750815b61145d5760405162461bcd60e51b815260206004820152602560248201527f4d65726b6c65547269653a2070726f76696465642070726f6f6620697320696e6044820152641d985b1a5960da1b60648201526084016102cd565b60008161147957604051806020016040528060008152506114a5565b6114a58661148860018861359a565b8151811061149857611498613357565b60200260200101516127c2565b805115159c909b509950505050505050505050565b604080518082019091526000808252602082015260008251116114ef5760405162461bcd60e51b81526004016102cd9061369f565b50604080518082019091528151815260209182019181019190915290565b6060600080600061151d85611730565b91945092509050600181600181111561153857611538613303565b146115ab5760405162461bcd60e51b815260206004820152603860248201527f524c505265616465723a206465636f646564206974656d207479706520666f7260448201527f206c697374206973206e6f742061206c697374206974656d000000000000000060648201526084016102cd565b84516115b783856135ad565b1461161f5760405162461bcd60e51b815260206004820152603260248201527f524c505265616465723a206c697374206974656d2068617320616e20696e76616044820152713634b2103230ba30903932b6b0b4b73232b960711b60648201526084016102cd565b604080516020808252610420820190925290816020015b60408051808201909152600080825260208201528152602001906001900390816116365790505093506000835b8651811015611724576000806116a96040518060400160405280858c6000015161168d919061359a565b8152602001858c602001516116a291906135ad565b9052611730565b5091509150604051806040016040528083836116c591906135ad565b8152602001848b602001516116da91906135ad565b8152508885815181106116ef576116ef613357565b60209081029190910101526117056001856135ad565b935061171181836135ad565b61171b90846135ad565b92505050611663565b50845250919392505050565b6000806000808460000151116117585760405162461bcd60e51b81526004016102cd9061369f565b6020840151805160001a607f811161177d576000600160009450945094505050611dec565b60b781116118da57600061179260808361359a565b9050808760000151116118125760405162461bcd60e51b815260206004820152604e602482015260008051602061391983398151915260448201527f742062652067726561746572207468616e20737472696e67206c656e6774682060648201526d2873686f727420737472696e672960901b608482015260a4016102cd565b6001838101516001600160f81b031916908214158061183f5750600160ff1b6001600160f81b0319821610155b6118c75760405162461bcd60e51b815260206004820152604d60248201527f524c505265616465723a20696e76616c6964207072656669782c2073696e676c60448201527f652062797465203c203078383020617265206e6f74207072656669786564202860648201526c73686f727420737472696e672960981b608482015260a4016102cd565b5060019550935060009250611dec915050565b60bf8111611b1b5760006118ef60b78361359a565b9050808760000151116119725760405162461bcd60e51b8152602060048201526051602482015260008051602061391983398151915260448201527f74206265203e207468616e206c656e677468206f6620737472696e67206c656e60648201527067746820286c6f6e6720737472696e672960781b608482015260a4016102cd565b60018301516001600160f81b03191660008190036119f95760405162461bcd60e51b815260206004820152604a602482015260008051602061391983398151915260448201527f74206e6f74206861766520616e79206c656164696e67207a65726f7320286c6f6064820152696e6720737472696e672960b01b608482015260a4016102cd565b600184015160088302610100031c60378111611a7c5760405162461bcd60e51b8152602060048201526048602482015260008051602061391983398151915260448201527f742062652067726561746572207468616e20353520627974657320286c6f6e6760648201526720737472696e672960c01b608482015260a4016102cd565b611a8681846135ad565b895111611afe5760405162461bcd60e51b815260206004820152604c602482015260008051602061391983398151915260448201527f742062652067726561746572207468616e20746f74616c206c656e677468202860648201526b6c6f6e6720737472696e672960a01b608482015260a4016102cd565b611b098360016135ad565b9750955060009450611dec9350505050565b60f78111611bbd576000611b3060c08361359a565b905080876000015111611bac5760405162461bcd60e51b815260206004820152604a602482015260008051602061391983398151915260448201527f742062652067726561746572207468616e206c697374206c656e677468202873606482015269686f7274206c6973742960b01b608482015260a4016102cd565b600195509350849250611dec915050565b6000611bca60f78361359a565b905080876000015111611c495760405162461bcd60e51b815260206004820152604d602482015260008051602061391983398151915260448201527f74206265203e207468616e206c656e677468206f66206c697374206c656e677460648201526c6820286c6f6e67206c6973742960981b608482015260a4016102cd565b60018301516001600160f81b0319166000819003611cce5760405162461bcd60e51b8152602060048201526048602482015260008051602061391983398151915260448201527f74206e6f74206861766520616e79206c656164696e67207a65726f7320286c6f6064820152676e67206c6973742960c01b608482015260a4016102cd565b600184015160088302610100031c60378111611d4f5760405162461bcd60e51b8152602060048201526046602482015260008051602061391983398151915260448201527f742062652067726561746572207468616e20353520627974657320286c6f6e67606482015265206c6973742960d01b608482015260a4016102cd565b611d5981846135ad565b895111611dcf5760405162461bcd60e51b815260206004820152604a602482015260008051602061391983398151915260448201527f742062652067726561746572207468616e20746f74616c206c656e67746820286064820152696c6f6e67206c6973742960b01b608482015260a4016102cd565b611dda8360016135ad565b9750955060019450611dec9350505050565b9193909250565b6060816001600160401b03811115611e0d57611e0d612bb9565b6040519080825280601f01601f191660200182016040528015611e37576020820181803683370190505b50905081156104ad576000611e4c84866135ad565b90506020820160005b84811015611e6d578281015182820152602001611e55565b84811115611e7c576000858301525b5050509392505050565b60006020825110611e9f57611e9a826134b6565b61079d565b600382516020611eaf919061359a565b901b611eba836134b6565b901c92915050565b6060610a6d868484878963ffffffff16565b60608182601f011015611f1a5760405162461bcd60e51b815260206004820152600e60248201526d736c6963655f6f766572666c6f7760901b60448201526064016102cd565b828284011015611f5d5760405162461bcd60e51b815260206004820152600e60248201526d736c6963655f6f766572666c6f7760901b60448201526064016102cd565b81830184511015611fa45760405162461bcd60e51b8152602060048201526011602482015270736c6963655f6f75744f66426f756e647360781b60448201526064016102cd565b606082158015611fc3576040519150600082526020820160405261200d565b6040519150601f8416801560200281840101858101878315602002848b0101015b81831015611ffc578051835260209283019201611fe4565b5050858452601f01601f1916604052505b50949350505050565b6000816001600160a01b031663f2b4e6176040518163ffffffff1660e01b8152600401602060405180830381865afa925050508015612072575060408051601f3d908101601f1916820190925261206f91810190613682565b60015b61208f57604051635a23942360e11b815260040160405180910390fd5b6001600160a01b03811661079d57604051635a23942360e11b815260040160405180910390fd5b60006001826001600160a01b031663200d2ed26040518163ffffffff1660e01b8152600401602060405180830381865afa1580156120f8573d6000803e3d6000fd5b505050506040513d601f19601f8201168201806040525081019061211c919061370f565b600281111561212d5761212d613303565b148061079d575061079d826127ec565b80516060906000816001600160401b0381111561215c5761215c612bb9565b6040519080825280602002602001820160405280156121a157816020015b604080518082019091526060808252602082015281526020019060019003908161217a5790505b50905060005b8281101561082e5760405180604001604052808683815181106121cc576121cc613357565b602002602001015181526020016121fb8784815181106121ee576121ee613357565b6020026020010151610aa0565b81525082828151811061221057612210613357565b60209081029190910101526001016121a7565b6000606081808061223387612982565b905060008660405160200161224a91815260200190565b60408051601f19818403018152828201909152606080835260208301529150600090819060005b8c51811015612760578c818151811061228c5761228c613357565b6020026020010151915082846122a291906135ad565b93506122af6001886135ad565b96508360000361235057815180516020918201206040516122ff926122d992910190815260200190565b604051602081830303815290604052868051602091820120825192909101919091201490565b61234b5760405162461bcd60e51b815260206004820152601d60248201527f4d65726b6c65547269653a20696e76616c696420726f6f74206861736800000060448201526064016102cd565b612446565b8151516020116123d6578151805160209182012060405161237a926122d992910190815260200190565b61234b5760405162461bcd60e51b815260206004820152602760248201527f4d65726b6c65547269653a20696e76616c6964206c6172676520696e7465726e6044820152660c2d840d0c2e6d60cb1b60648201526084016102cd565b8151855160208088019190912082519190920120146124465760405162461bcd60e51b815260206004820152602660248201527f4d65726b6c65547269653a20696e76616c696420696e7465726e616c206e6f646044820152650ca40d0c2e6d60d31b60648201526084016102cd565b612452601060016135ad565b826020015151036124c4578551841461276057600086858151811061247957612479613357565b602001015160f81c60f81b60f81c9050600083602001518260ff16815181106124a4576124a4613357565b602002602001015190506124b7816129e5565b9650600194505050612758565b6002826020015151036126ff5760006124dc83612a05565b90506000816000815181106124f3576124f3613357565b016020015160f81c9050600061250a600283613730565b612515906002613760565b90506000612526848360ff16612a29565b905060006125348b8a612a29565b905060006125428383612a5f565b90508251825110156125bc5760405162461bcd60e51b815260206004820152603960248201527f4d65726b6c65547269653a20696e76616c6964206b6579206c656e677468206660448201527f6f72206c656166206f7220657874656e73696f6e206e6f64650000000000000060648201526084016102cd565b60ff8516600214806125d1575060ff85166003145b1561261f578083511480156125e65750808251145b156125f8576125f5818b6135ad565b99505b604051806040016040528060018152602001600160ff1b8152509a50505050505050612760565b60ff85161580612632575060ff85166001145b1561269c578251811461266657604051806040016040528060018152602001600160ff1b8152509a50505050505050612760565b61268d886020015160018151811061268057612680613357565b60200260200101516129e5565b9a509750612758945050505050565b60405162461bcd60e51b815260206004820152603260248201527f4d65726b6c65547269653a2072656365697665642061206e6f64652077697468604482015271040c2dc40eadcd6dcdeeedc40e0e4caccd2f60731b60648201526084016102cd565b60405162461bcd60e51b815260206004820152602860248201527f4d65726b6c65547269653a20726563656976656420616e20756e706172736561604482015267626c65206e6f646560c01b60648201526084016102cd565b600101612271565b508561276c8685612a29565b6040805180820190915260018152600160ff1b6020918201528651908701207f56e81f171bcc55a6ff8345e692c0f86e5b48e01b996cadc001622fb5e363b4211498509850985050505050505093509350939050565b6020810151805160609161079d916127dc9060019061359a565b8151811061059357610593613357565b60006002826001600160a01b031663200d2ed26040518163ffffffff1660e01b8152600401602060405180830381865afa15801561282e573d6000803e3d6000fd5b505050506040513d601f19601f82011682018060405250810190612852919061370f565b600281111561286357612863613303565b0361287057506000919050565b6001826001600160a01b0316638980e0cc6040518163ffffffff1660e01b8152600401602060405180830381865afa1580156128b0573d6000803e3d6000fd5b505050506040513d601f19601f820116820180604052508101906128d49190613669565b11156128e257506001919050565b6040516331bc0c2360e21b8152600060048201819052906001600160a01b0384169063c6f0308c9060240160e060405180830381865afa15801561292a573d6000803e3d6000fd5b505050506040513d601f19601f8201168201806040525081019061294e9190613779565b505050505091505060006001600160a01b0316816001600160a01b0316146129795750600192915050565b50600092915050565b606080604051905082518060011b603f8101601f1916830160405280835250602084016020830160005b838110156129da578060011b82018184015160001a8060041c8253600f8116600183015350506001016129ac565b509295945050505050565b606060208260000151106129fc57611e9a82610ab3565b61079d82612ade565b606061079d612a24836020015160008151811061059357610593613357565b612982565b606082518210612a48575060408051602081019091526000815261079d565b6104ad8383848651612a5a919061359a565b611ed4565b60008060008351855110612a74578351612a77565b84515b90505b8082108015612ace5750838281518110612a9657612a96613357565b602001015160f81c60f81b6001600160f81b031916858381518110612abd57612abd613357565b01602001516001600160f81b031916145b1561082e57816001019150612a7a565b606061079d826020015160008460000151611df3565b828054828255906000526020600020908101928215612b3a579160200282015b82811115612b3a5782518290612b2a908261385a565b5091602001919060010190612b14565b50612b46929150612b4a565b5090565b80821115612b46576000612b5e8282612b67565b50600101612b4a565b508054612b739061336d565b6000825580601f10612b83575050565b601f016020900490600052602060002090810190612ba19190612ba4565b50565b5b80821115612b465760008155600101612ba5565b634e487b7160e01b600052604160045260246000fd5b604051606081016001600160401b0381118282101715612bf157612bf1612bb9565b60405290565b604051608081016001600160401b0381118282101715612bf157612bf1612bb9565b604051601f8201601f191681016001600160401b0381118282101715612c4157612c41612bb9565b604052919050565b60006001600160401b03821115612c6257612c62612bb9565b5060051b60200190565b60006001600160401b03821115612c8557612c85612bb9565b50601f01601f191660200190565b6000612ca6612ca184612c6c565b612c19565b9050828152838383011115612cba57600080fd5b828260208301376000602084830101529392505050565b600060208284031215612ce357600080fd5b81356001600160401b03811115612cf957600080fd5b8201601f81018413612d0a57600080fd5b8035612d18612ca182612c49565b8082825260208201915060208360051b850101925086831115612d3a57600080fd5b602084015b83811015612d8f5780356001600160401b03811115612d5d57600080fd5b8501603f81018913612d6e57600080fd5b612d8089602083013560408401612c93565b84525060209283019201612d3f565b509695505050505050565b6001600160a01b0381168114612ba157600080fd5b600082601f830112612dc057600080fd5b8135612dce612ca182612c49565b8082825260208201915060208360051b860101925085831115612df057600080fd5b602085015b83811015610410578035835260209283019201612df5565b600082601f830112612e1e57600080fd5b6104ad83833560208501612c93565b600082601f830112612e3e57600080fd5b8135612e4c612ca182612c49565b8082825260208201915060208360051b860101925085831115612e6e57600080fd5b602085015b838110156104105780356001600160401b03811115612e9157600080fd5b612ea0886020838a0101612e0d565b84525060209283019201612e73565b600080600080600060a08688031215612ec757600080fd5b8535612ed281612d9a565b945060208601356001600160401b03811115612eed57600080fd5b612ef988828901612daf565b94505060408601356001600160401b03811115612f1557600080fd5b612f2188828901612e2d565b93505060608601356001600160401b03811115612f3d57600080fd5b612f4988828901612e0d565b92505060808601356001600160401b03811115612f6557600080fd5b612f7188828901612e0d565b9150509295509295909350565b60005b83811015612f99578181015183820152602001612f81565b50506000910152565b60008151808452612fba816020860160208601612f7e565b601f01601f19169290920160200192915050565b6000602082016020835280845180835260408501915060408160051b86010192506020860160005b8281101561302757603f19878603018452613012858351612fa2565b94506020938401939190910190600101612ff6565b50929695505050505050565b60006020828403121561304557600080fd5b81356001600160401b0381111561305b57600080fd5b61063084828501612e0d565b6000602082016020835280845180835260408501915060408160051b86010192506020860160005b8281101561302757603f198786030184526130ab858351612fa2565b9450602093840193919091019060010161308f565b600080604083850312156130d357600080fd5b82516130de81612d9a565b6020939093015192949293505050565b600082601f8301126130ff57600080fd5b815161310d612ca182612c6c565b81815284602083860101111561312257600080fd5b610630826020830160208701612f7e565b600082601f83011261314457600080fd5b8151613152612ca182612c49565b8082825260208201915060208360051b86010192508583111561317457600080fd5b602085015b838110156104105780516001600160401b0381111561319757600080fd5b6131a6886020838a01016130ee565b84525060209283019201613179565b6000604082840312156131c757600080fd5b604080519081016001600160401b03811182821017156131e9576131e9612bb9565b806040525080915082516001600160401b0381111561320757600080fd5b613213858286016130ee565b82525060208301516001600160401b0381111561322f57600080fd5b61323b85828601613133565b6020830152505092915050565b60008082840360e081121561325c57600080fd5b60c081121561326a57600080fd5b613272612bcf565b84516002811061328157600080fd5b8152602085810151908201526080603f198301121561329f57600080fd5b6132a7612bf7565b6040868101518252606080880151602084015260808801518284015260a08801519083015282015260c085015190935090506001600160401b038111156132ed57600080fd5b6132f9858286016131b5565b9150509250929050565b634e487b7160e01b600052602160045260246000fd5b608081016002861061333b57634e487b7160e01b600052602160045260246000fd5b9481526020810193909352604083019190915260609091015290565b634e487b7160e01b600052603260045260246000fd5b600181811c9082168061338157607f821691505b6020821081036133a157634e487b7160e01b600052602260045260246000fd5b50919050565b600081516133b9818560208601612f7e565b9290920192915050565b60008085546133d18161336d565b6001821680156133e857600181146133fd5761342d565b60ff198316865281151582028601935061342d565b88600052602060002060005b8381101561342557815488820152600190910190602001613409565b505081860193505b5050602f60f81b82525061344460018201866133a7565b602f60f81b8152905061345a60018201856133a7565b7417bdb9b2b73232b93e97bdb230ba30be973539b7b760591b81526015019695505050505050565b60006020828403121561349457600080fd5b81516001600160401b038111156134aa57600080fd5b61063084828501613133565b805160208083015191908110156133a15760001960209190910360031b1b16919050565b634e487b7160e01b600052601160045260246000fd5b600060018201613502576135026134da565b5060010190565b63ffffffff81168114612ba157600080fd5b60006020828403121561352d57600080fd5b81516104ad81613509565b6001600160801b0381168114612ba157600080fd5b6000606082840312801561356057600080fd5b50613569612bcf565b82518152602083015161357b81613538565b6020820152604083015161358e81613538565b60408201529392505050565b8181038181111561079d5761079d6134da565b8082018082111561079d5761079d6134da565b600083516135d2818460208801612f7e565b9190910191825250602001919050565b808202811582820484141761079d5761079d6134da565b600081613608576136086134da565b506000190190565b60008060006060848603121561362557600080fd5b835161363081613509565b60208501519093506001600160401b038116811461364d57600080fd5b604085015190925061365e81612d9a565b809150509250925092565b60006020828403121561367b57600080fd5b5051919050565b60006020828403121561369457600080fd5b81516104ad81612d9a565b6020808252604a908201527f524c505265616465723a206c656e677468206f6620616e20524c50206974656d60408201527f206d7573742062652067726561746572207468616e207a65726f20746f206265606082015269206465636f6461626c6560b01b608082015260a00190565b60006020828403121561372157600080fd5b8151600381106104ad57600080fd5b600060ff83168061375157634e487b7160e01b600052601260045260246000fd5b8060ff84160691505092915050565b60ff828116828216039081111561079d5761079d6134da565b600080600080600080600060e0888a03121561379457600080fd5b875161379f81613509565b60208901519097506137b081612d9a565b60408901519096506137c181612d9a565b60608901519095506137d281613538565b608089015160a08a015191955093506137ea81613538565b60c08901519092506137fb81613538565b8091505092959891949750929550565b601f82111561385557806000526020600020601f840160051c810160208510156138325750805b601f840160051c820191505b81811015613852576000815560010161383e565b50505b505050565b81516001600160401b0381111561387357613873612bb9565b61388781613881845461336d565b8461380b565b6020601f8211600181146138bb57600083156138a35750848201515b600019600385901b1c1916600184901b178455613852565b600084815260208120601f198516915b828110156138eb57878501518255602094850194600190920191016138cb565b50848210156139095786840151600019600387901b60f8161c191681555b50505050600190811b0190555056fe524c505265616465723a206c656e677468206f6620636f6e74656e74206d7573a2646970667358221220b45484243e69e12811d50c12d08888f17d51e706eeace08ec3af252b989675a064736f6c634300081c0033",
  "linkReferences": {},
  "deployedLinkReferences": {}
}