{
  "_format": "hh-sol-artifact-1",
  "contractName": "OPVerifier",
  "sourceName": "contracts/OPVerifier.sol",
  "abi": [
    {
      "inputs": [
        {
          "internalType": "string[]",
          "name": "urls",
          "type": "string[]"
        },
        {
          "internalType": "uint256",
          "name": "maximumAge",
          "type": "uint256"
        }
      ],
      "stateMutability": "nonpayable",
      "type": "constructor"
    },
    {
      "inputs": [
        {
          "internalType": "address",
          "name": "",
          "type": "address"
        }
      ],
      "name": "AccountNotFound",
      "type": "error"
    },
    {
      "inputs": [],
      "name": "DisputeGameNotEnabled",
      "type": "error"
    },
    {
      "inputs": [
        {
          "internalType": "uint256",
          "name": "disputeGameIndex",
          "type": "uint256"
        },
        {
          "internalType": "uint256",
          "name": "age",
          "type": "uint256"
        },
        {
          "internalType": "uint256",
          "name": "maxAge",
          "type": "uint256"
        }
      ],
      "name": "GameExpired",
      "type": "error"
    },
    {
      "inputs": [
        {
          "internalType": "uint256",
          "name": "disputeGameIndex",
          "type": "uint256"
        }
      ],
      "name": "GameInvalid",
      "type": "error"
    },
    {
      "inputs": [
        {
          "internalType": "uint256",
          "name": "disputeGameIndex",
          "type": "uint256"
        },
        {
          "internalType": "uint256",
          "name": "age",
          "type": "uint256"
        },
        {
          "internalType": "uint256",
          "name": "minAge",
          "type": "uint256"
        }
      ],
      "name": "GameTooEarly",
      "type": "error"
    },
    {
      "inputs": [
        {
          "internalType": "uint256",
          "name": "disputeGameIndex",
          "type": "uint256"
        },
        {
          "internalType": "GameType",
          "name": "expected",
          "type": "uint32"
        },
        {
          "internalType": "GameType",
          "name": "actual",
          "type": "uint32"
        }
      ],
      "name": "GameTypeMismatch",
      "type": "error"
    },
    {
      "inputs": [],
      "name": "L2OutputOracleDeprecated",
      "type": "error"
    },
    {
      "inputs": [
        {
          "internalType": "uint256",
          "name": "l2OutputIndex",
          "type": "uint256"
        },
        {
          "internalType": "uint256",
          "name": "age",
          "type": "uint256"
        },
        {
          "internalType": "uint256",
          "name": "maxAge",
          "type": "uint256"
        }
      ],
      "name": "OutputExpired",
      "type": "error"
    },
    {
      "inputs": [
        {
          "internalType": "enum OPWitnessProofType",
          "name": "proofType",
          "type": "uint8"
        },
        {
          "internalType": "uint256",
          "name": "index",
          "type": "uint256"
        },
        {
          "internalType": "bytes32",
          "name": "expected",
          "type": "bytes32"
        },
        {
          "internalType": "bytes32",
          "name": "actual",
          "type": "bytes32"
        }
      ],
      "name": "OutputRootMismatch",
      "type": "error"
    },
    {
      "inputs": [
        {
          "internalType": "uint256",
          "name": "l2OutputIndex",
          "type": "uint256"
        },
        {
          "internalType": "uint256",
          "name": "age",
          "type": "uint256"
        },
        {
          "internalType": "uint256",
          "name": "minAge",
          "type": "uint256"
        }
      ],
      "name": "OutputTooEarly",
      "type": "error"
    },
    {
      "inputs": [
        {
          "internalType": "uint256",
          "name": "value",
          "type": "uint256"
        },
        {
          "internalType": "uint256",
          "name": "length",
          "type": "uint256"
        }
      ],
      "name": "StringsInsufficientHexLength",
      "type": "error"
    },
    {
      "inputs": [
        {
          "internalType": "uint8",
          "name": "",
          "type": "uint8"
        }
      ],
      "name": "UnknownOpcode",
      "type": "error"
    },
    {
      "inputs": [
        {
          "internalType": "bytes",
          "name": "verifierData",
          "type": "bytes"
        }
      ],
      "name": "gatewayURLs",
      "outputs": [
        {
          "internalType": "string[]",
          "name": "",
          "type": "string[]"
        }
      ],
      "stateMutability": "view",
      "type": "function"
    },
    {
      "inputs": [
        {
          "internalType": "address",
          "name": "target",
          "type": "address"
        },
        {
          "internalType": "bytes32[]",
          "name": "commands",
          "type": "bytes32[]"
        },
        {
          "internalType": "bytes[]",
          "name": "constants",
          "type": "bytes[]"
        },
        {
          "internalType": "bytes",
          "name": "proof",
          "type": "bytes"
        },
        {
          "internalType": "bytes",
          "name": "verifierData",
          "type": "bytes"
        }
      ],
      "name": "getStorageValues",
      "outputs": [
        {
          "internalType": "bytes[]",
          "name": "values",
          "type": "bytes[]"
        }
      ],
      "stateMutability": "view",
      "type": "function"
    },
    {
      "inputs": [],
      "name": "maxAge",
      "outputs": [
        {
          "internalType": "uint256",
          "name": "",
          "type": "uint256"
        }
      ],
      "stateMutability": "view",
      "type": "function"
    }
  ],
  "bytecode": "0x60a060405234801561001057600080fd5b506040516139a53803806139a583398101604081905261002f91610157565b815161004290600090602085019061004c565b50608052506103ef565b828054828255906000526020600020908101928215610092579160200282015b8281111561009257825182906100829082610331565b509160200191906001019061006c565b5061009e9291506100a2565b5090565b8082111561009e5760006100b682826100bf565b506001016100a2565b5080546100cb906102a8565b6000825580601f106100db575050565b601f0160209004906000526020600020908101906100f991906100fc565b50565b5b8082111561009e57600081556001016100fd565b634e487b7160e01b600052604160045260246000fd5b604051601f8201601f191681016001600160401b038111828210171561014f5761014f610111565b604052919050565b6000806040838503121561016a57600080fd5b82516001600160401b0381111561018057600080fd5b8301601f8101851361019157600080fd5b80516001600160401b038111156101aa576101aa610111565b8060051b6101ba60208201610127565b918252602081840181019290810190888411156101d657600080fd5b6020850192505b838310156102945782516001600160401b038111156101fb57600080fd5b8501603f81018a1361020c57600080fd5b60208101516001600160401b0381111561022857610228610111565b61023b601f8201601f1916602001610127565b8181526040838301018c101561025057600080fd5b60005b828110156102735780840160400151602083830181019190915201610253565b506000602083830101528085525050506020820191506020830192506101dd565b602097909701519698969750505050505050565b600181811c908216806102bc57607f821691505b6020821081036102dc57634e487b7160e01b600052602260045260246000fd5b50919050565b601f82111561032c57806000526020600020601f840160051c810160208510156103095750805b601f840160051c820191505b818110156103295760008155600101610315565b50505b505050565b81516001600160401b0381111561034a5761034a610111565b61035e8161035884546102a8565b846102e2565b6020601f821160018114610392576000831561037a5750848201515b600019600385901b1c1916600184901b178455610329565b600084815260208120601f198516915b828110156103c257878501518255602094850194600190920191016103a2565b50848210156103e05786840151600019600387901b60f8161c191681555b50505050600190811b01905550565b60805161358e61041760003960008181604b015281816103480152610385015261358e6000f3fe608060405234801561001057600080fd5b50600436106100415760003560e01c8063687043c5146100465780638e0ff07814610080578063c76c3dac146100a0575b600080fd5b61006d7f000000000000000000000000000000000000000000000000000000000000000081565b6040519081526020015b60405180910390f35b61009361008e366004612be3565b6100c0565b6040516100779190612d02565b6100b36100ae366004612d67565b6101dd565b6040516100779190612d9b565b6060600080838060200190518101906100d99190612df4565b91509150600080868060200190518101906100f49190612f7c565b91509150600061010783604001516102e1565b9050600060018451600181111561012057610120613037565b0361013b576101348460200151878761033d565b9050610167565b60008451600181111561015057610150613037565b03610167576101648460200151878761037b565b90505b81811461019d57835160208501516040516391d633f760e01b81526101949291908590859060040161304d565b60405180910390fd5b60006101b68560400151602001518e86600001516103b2565b90506101cc8d61047c8e8e8589602001516104ff565b9d9c50505050505050505050505050565b6060600080838060200190518101906101f69190612df4565b60008054929450909250816001600160401b03811115610218576102186129d3565b60405190808252806020026020018201604052801561024b57816020015b60608152602001906001900390816102365790505b50905060005b828110156102d7576000818154811061026c5761026c61308b565b90600052602060002001610288866001600160a01b031661064e565b6102918661066a565b6040516020016102a3939291906130bd565b6040516020818303038152906040528282815181106102c4576102c461308b565b6020908102919091010152600101610251565b5095945050505050565b60008160000151826020015183604001518460600151604051602001610320949392919093845260208401929092526040830152606082015260800190565b604051602081830303815290604052805190602001209050919050565b60008061036c8486857f00000000000000000000000000000000000000000000000000000000000000006106fd565b509193505050505b9392505050565b60006103a98385847f00000000000000000000000000000000000000000000000000000000000000006107cb565b51949350505050565b600080828060200190518101906103c991906131ac565b6040516bffffffffffffffffffffffff19606087901b166020820152909150600090819061040a90603401604051602081830303815290604052848961093e565b9150915081610437576040516353807e1960e11b81526001600160a01b0387166004820152602401610194565b600061044282610967565b90506104678160028151811061045a5761045a61308b565b602002602001015161097a565b610470906131e0565b98975050505050505050565b606060008380602001905181019061049491906131ac565b90506000806104c5876040516020016104af91815260200190565b604051602081830303815290604052848761093e565b91509150816104e8576040518060200160405280600081525093505050506104f7565b6104f181610aa6565b93505050505b949350505050565b6060600085516001600160401b0381111561051c5761051c6129d3565b60405190808252806020026020018201604052801561054f57816020015b606081526020019060019003908161053a5790505b50915060005b86518110156106425760008782815181106105725761057261308b565b6020026020010151905060008061058a838a88610ab9565b9150915081610607576105c48c8c8a848b8a6105a58161321d565b9b50815181106105b7576105b761308b565b6020026020010151610bf4565b6040516020016105d691815260200190565b6040516020818303038152906040528685815181106105f7576105f761308b565b6020026020010181905250610637565b6106158c8c8a848b8a610c36565b8786815181106106275761062761308b565b6020026020010181975082905250505b505050600101610555565b50509695505050505050565b60606106646001600160a01b0383166014610d8a565b92915050565b6060600061067783610f01565b60010190506000816001600160401b03811115610696576106966129d3565b6040519080825280601f01601f1916602001820160405280156106c0576020820181803683370190505b5090508181016020015b600019016f181899199a1a9b1b9c1cb0b131b232b360811b600a86061a8153600a85049450846106ca575b509392505050565b6000806000806000886001600160a01b0316633c9f397c6040518163ffffffff1660e01b8152600401602060405180830381865afa158015610743573d6000803e3d6000fd5b505050506040513d601f19601f820116820180604052508101906107679190613248565b905061077589898989610fd9565b9297509095509350915063ffffffff808516908216146107bf576040516323fa115960e21b81526004810189905263ffffffff808316602483015285166044820152606401610194565b50945094509450949050565b60408051606081018252600080825260208201819052918101829052906107f1866111c3565b60405163a25ae55760e01b8152600481018790529091506000906001600160a01b0383169063a25ae55790602401606060405180830381865afa15801561083c573d6000803e3d6000fd5b505050506040513d601f19601f82011682018060405250810190610860919061327a565b90508481602001516001600160801b03164261087c91906132c7565b10156108c5578581602001516001600160801b03164261089c91906132c7565b6040516328711f9f60e01b81526004810192909252602482015260448101869052606401610194565b6000841180156108ec57508381602001516001600160801b0316426108ea91906132c7565b115b15610934578581602001516001600160801b03164261090b91906132c7565b60405163107b0e1960e01b81526004810192909252602482015260448101859052606401610194565b9695505050505050565b60006060600061094d86611263565b905061095a818686611295565b9250925050935093915050565b606061066461097583611381565b6113d4565b6060600080600061098a856115f7565b9194509250905060008160018111156109a5576109a5613037565b14610a185760405162461bcd60e51b815260206004820152603960248201527f524c505265616465723a206465636f646564206974656d207479706520666f7260448201527f206279746573206973206e6f7420612064617461206974656d000000000000006064820152608401610194565b610a2282846132da565b855114610a8e5760405162461bcd60e51b815260206004820152603460248201527f524c505265616465723a2062797465732076616c756520636f6e7461696e732060448201527330b71034b73b30b634b2103932b6b0b4b73232b960611b6064820152608401610194565b610a9d85602001518484611cba565b95945050505050565b6060610664610ab483611381565b61097a565b6001600084811a8281161515925b6020811015610bea576000878260208110610ae457610ae461308b565b1a905060fe198101610af65750610bea565b60e08116601f821681610b5257888160ff1681518110610b1857610b1861308b565b602002602001015186604051602001610b329291906132ed565b6040516020818303038152906040528051906020012060001c9550610bd3565b601f1960ff831601610b7357878160ff1681518110610b1857610b1861308b565b603f1960ff831601610bb557610ba4898260ff1681518110610b9757610b9761308b565b6020026020010151611d4d565b610bae90876132da565b9550610bd3565b604051632cde2db560e21b815260ff84166004820152602401610194565b505050600181610be391906132da565b9050610ac7565b5050935093915050565b600080610c048787878787611d89565b905080516008610c14919061330f565b610c20906101006132c7565b610c29826131e0565b901c979650505050505050565b6060600080610c5f898989898989610c4d8161321d565b9a50815181106105b7576105b761308b565b905060018082169003610d3b576040805160208101889052016040516020818303038152906040528051906020012060001c9550600181901c6001600160401b03811115610caf57610caf6129d3565b6040519080825280601f01601f191660200182016040528015610cd9576020820181803683370190505b50925060005b8351811015610d3057610cf36020826132da565b90506000610d268b8b8b8b610d078161321d565b9c508b8b610d148161321d565b9c50815181106105b7576105b761308b565b8583015250610cdf565b50839150610d7f9050565b600060018260ff16901c9050610d7760008284604051602001610d6091815260200190565b60408051601f198184030181529190529190611d9b565b859350935050505b965096945050505050565b6060826000610d9a84600261330f565b610da59060026132da565b6001600160401b03811115610dbc57610dbc6129d3565b6040519080825280601f01601f191660200182016040528015610de6576020820181803683370190505b509050600360fc1b81600081518110610e0157610e0161308b565b60200101906001600160f81b031916908160001a905350600f60fb1b81600181518110610e3057610e3061308b565b60200101906001600160f81b031916908160001a9053506000610e5485600261330f565b610e5f9060016132da565b90505b6001811115610ed7576f181899199a1a9b1b9c1cb0b131b232b360811b83600f1660108110610e9357610e9361308b565b1a60f81b828281518110610ea957610ea961308b565b60200101906001600160f81b031916908160001a90535060049290921c91610ed081613326565b9050610e62565b5081156104f75760405163e22e27eb60e01b81526004810186905260248101859052604401610194565b60008072184f03e93ff9f4daa797ed6e38ed64bf6a1f0160401b8310610f405772184f03e93ff9f4daa797ed6e38ed64bf6a1f0160401b830492506040015b6d04ee2d6d415b85acef81000000008310610f6c576d04ee2d6d415b85acef8100000000830492506020015b662386f26fc100008310610f8a57662386f26fc10000830492506010015b6305f5e1008310610fa2576305f5e100830492506008015b6127108310610fb657612710830492506004015b60648310610fc8576064830492506002015b600a83106106645760010192915050565b6000806000806000610fea89611edd565b604051632ee2a87f60e21b8152600481018a90529091506000906001600160a01b0383169063bb8aa1fc90602401606060405180830381865afa158015611035573d6000803e3d6000fd5b505050506040513d601f19601f82011682018060405250810190611059919061333d565b8095508193508297505050506110cd836001600160a01b031663bcef3b556040518163ffffffff1660e01b8152600401602060405180830381865afa1580156110a6573d6000803e3d6000fd5b505050506040513d601f19601f820116820180604052508101906110ca9190613396565b90565b95506001600160401b0381169350876110e685426132c7565b101561112957886111006001600160401b038616426132c7565b6040516366460f9d60e01b81526004810192909252602482015260448101899052606401610194565b60008711801561114a5750866111486001600160401b038616426132c7565b115b1561118c57886111636001600160401b038616426132c7565b604051631fc476cf60e21b81526004810192909252602482015260448101889052606401610194565b61119583611f7d565b156111b6576040516336834a3160e21b8152600481018a9052602401610194565b5050945094509450949050565b6000816001600160a01b0316639b5f694a6040518163ffffffff1660e01b8152600401602060405180830381865afa92505050801561121f575060408051601f3d908101601f1916820190925261121c918101906133af565b60015b61123c57604051638b4df23f60e01b815260040160405180910390fd5b6001600160a01b03811661066457604051638b4df23f60e01b815260040160405180910390fd5b6060818051906020012060405160200161127f91815260200190565b6040516020818303038152906040529050919050565b6000606060006112a485612004565b905060008060006112b6848a896120ea565b815192955090935091501580806112ca5750815b6113245760405162461bcd60e51b815260206004820152602560248201527f4d65726b6c65547269653a2070726f76696465642070726f6f6620697320696e6044820152641d985b1a5960da1b6064820152608401610194565b600081611340576040518060200160405280600081525061136c565b61136c8661134f6001886132c7565b8151811061135f5761135f61308b565b6020026020010151612689565b805115159c909b509950505050505050505050565b604080518082019091526000808252602082015260008251116113b65760405162461bcd60e51b8152600401610194906133cc565b50604080518082019091528151815260209182019181019190915290565b606060008060006113e4856115f7565b9194509250905060018160018111156113ff576113ff613037565b146114725760405162461bcd60e51b815260206004820152603860248201527f524c505265616465723a206465636f646564206974656d207479706520666f7260448201527f206c697374206973206e6f742061206c697374206974656d00000000000000006064820152608401610194565b845161147e83856132da565b146114e65760405162461bcd60e51b815260206004820152603260248201527f524c505265616465723a206c697374206974656d2068617320616e20696e76616044820152713634b2103230ba30903932b6b0b4b73232b960711b6064820152608401610194565b604080516020808252610420820190925290816020015b60408051808201909152600080825260208201528152602001906001900390816114fd5790505093506000835b86518110156115eb576000806115706040518060400160405280858c6000015161155491906132c7565b8152602001858c6020015161156991906132da565b90526115f7565b50915091506040518060400160405280838361158c91906132da565b8152602001848b602001516115a191906132da565b8152508885815181106115b6576115b661308b565b60209081029190910101526115cc6001856132da565b93506115d881836132da565b6115e290846132da565b9250505061152a565b50845250919392505050565b60008060008084600001511161161f5760405162461bcd60e51b8152600401610194906133cc565b6020840151805160001a607f8111611644576000600160009450945094505050611cb3565b60b781116117a15760006116596080836132c7565b9050808760000151116116d95760405162461bcd60e51b815260206004820152604e602482015260008051602061353983398151915260448201527f742062652067726561746572207468616e20737472696e67206c656e6774682060648201526d2873686f727420737472696e672960901b608482015260a401610194565b6001838101516001600160f81b03191690821415806117065750600160ff1b6001600160f81b0319821610155b61178e5760405162461bcd60e51b815260206004820152604d60248201527f524c505265616465723a20696e76616c6964207072656669782c2073696e676c60448201527f652062797465203c203078383020617265206e6f74207072656669786564202860648201526c73686f727420737472696e672960981b608482015260a401610194565b5060019550935060009250611cb3915050565b60bf81116119e25760006117b660b7836132c7565b9050808760000151116118395760405162461bcd60e51b8152602060048201526051602482015260008051602061353983398151915260448201527f74206265203e207468616e206c656e677468206f6620737472696e67206c656e60648201527067746820286c6f6e6720737472696e672960781b608482015260a401610194565b60018301516001600160f81b03191660008190036118c05760405162461bcd60e51b815260206004820152604a602482015260008051602061353983398151915260448201527f74206e6f74206861766520616e79206c656164696e67207a65726f7320286c6f6064820152696e6720737472696e672960b01b608482015260a401610194565b600184015160088302610100031c603781116119435760405162461bcd60e51b8152602060048201526048602482015260008051602061353983398151915260448201527f742062652067726561746572207468616e20353520627974657320286c6f6e6760648201526720737472696e672960c01b608482015260a401610194565b61194d81846132da565b8951116119c55760405162461bcd60e51b815260206004820152604c602482015260008051602061353983398151915260448201527f742062652067726561746572207468616e20746f74616c206c656e677468202860648201526b6c6f6e6720737472696e672960a01b608482015260a401610194565b6119d08360016132da565b9750955060009450611cb39350505050565b60f78111611a845760006119f760c0836132c7565b905080876000015111611a735760405162461bcd60e51b815260206004820152604a602482015260008051602061353983398151915260448201527f742062652067726561746572207468616e206c697374206c656e677468202873606482015269686f7274206c6973742960b01b608482015260a401610194565b600195509350849250611cb3915050565b6000611a9160f7836132c7565b905080876000015111611b105760405162461bcd60e51b815260206004820152604d602482015260008051602061353983398151915260448201527f74206265203e207468616e206c656e677468206f66206c697374206c656e677460648201526c6820286c6f6e67206c6973742960981b608482015260a401610194565b60018301516001600160f81b0319166000819003611b955760405162461bcd60e51b8152602060048201526048602482015260008051602061353983398151915260448201527f74206e6f74206861766520616e79206c656164696e67207a65726f7320286c6f6064820152676e67206c6973742960c01b608482015260a401610194565b600184015160088302610100031c60378111611c165760405162461bcd60e51b8152602060048201526046602482015260008051602061353983398151915260448201527f742062652067726561746572207468616e20353520627974657320286c6f6e67606482015265206c6973742960d01b608482015260a401610194565b611c2081846132da565b895111611c965760405162461bcd60e51b815260206004820152604a602482015260008051602061353983398151915260448201527f742062652067726561746572207468616e20746f74616c206c656e67746820286064820152696c6f6e67206c6973742960b01b608482015260a401610194565b611ca18360016132da565b9750955060019450611cb39350505050565b9193909250565b6060816001600160401b03811115611cd457611cd46129d3565b6040519080825280601f01601f191660200182016040528015611cfe576020820181803683370190505b5090508115610374576000611d1384866132da565b90506020820160005b84811015611d34578281015182820152602001611d1c565b84811115611d43576000858301525b5050509392505050565b60006020825110611d6657611d61826131e0565b610664565b600382516020611d7691906132c7565b901b611d81836131e0565b901c92915050565b6060610934868484878963ffffffff16565b60608182601f011015611de15760405162461bcd60e51b815260206004820152600e60248201526d736c6963655f6f766572666c6f7760901b6044820152606401610194565b828284011015611e245760405162461bcd60e51b815260206004820152600e60248201526d736c6963655f6f766572666c6f7760901b6044820152606401610194565b81830184511015611e6b5760405162461bcd60e51b8152602060048201526011602482015270736c6963655f6f75744f66426f756e647360781b6044820152606401610194565b606082158015611e8a5760405191506000825260208201604052611ed4565b6040519150601f8416801560200281840101858101878315602002848b0101015b81831015611ec3578051835260209283019201611eab565b5050858452601f01601f1916604052505b50949350505050565b6000816001600160a01b031663f2b4e6176040518163ffffffff1660e01b8152600401602060405180830381865afa925050508015611f39575060408051601f3d908101601f19168201909252611f36918101906133af565b60015b611f5657604051635a23942360e11b815260040160405180910390fd5b6001600160a01b03811661066457604051635a23942360e11b815260040160405180910390fd5b60006001826001600160a01b031663200d2ed26040518163ffffffff1660e01b8152600401602060405180830381865afa158015611fbf573d6000803e3d6000fd5b505050506040513d601f19601f82011682018060405250810190611fe3919061343c565b6002811115611ff457611ff4613037565b14806106645750610664826126b3565b80516060906000816001600160401b03811115612023576120236129d3565b60405190808252806020026020018201604052801561206857816020015b60408051808201909152606080825260208201528152602001906001900390816120415790505b50905060005b828110156106f55760405180604001604052808683815181106120935761209361308b565b602002602001015181526020016120c28784815181106120b5576120b561308b565b6020026020010151610967565b8152508282815181106120d7576120d761308b565b602090810291909101015260010161206e565b600060608180806120fa87612849565b905060008660405160200161211191815260200190565b60408051601f19818403018152828201909152606080835260208301529150600090819060005b8c51811015612627578c81815181106121535761215361308b565b60200260200101519150828461216991906132da565b93506121766001886132da565b96508360000361221757815180516020918201206040516121c6926121a092910190815260200190565b604051602081830303815290604052868051602091820120825192909101919091201490565b6122125760405162461bcd60e51b815260206004820152601d60248201527f4d65726b6c65547269653a20696e76616c696420726f6f7420686173680000006044820152606401610194565b61230d565b81515160201161229d5781518051602091820120604051612241926121a092910190815260200190565b6122125760405162461bcd60e51b815260206004820152602760248201527f4d65726b6c65547269653a20696e76616c6964206c6172676520696e7465726e6044820152660c2d840d0c2e6d60cb1b6064820152608401610194565b81518551602080880191909120825191909201201461230d5760405162461bcd60e51b815260206004820152602660248201527f4d65726b6c65547269653a20696e76616c696420696e7465726e616c206e6f646044820152650ca40d0c2e6d60d31b6064820152608401610194565b612319601060016132da565b8260200151510361238b57855184146126275760008685815181106123405761234061308b565b602001015160f81c60f81b60f81c9050600083602001518260ff168151811061236b5761236b61308b565b6020026020010151905061237e816128ac565b965060019450505061261f565b6002826020015151036125c65760006123a3836128cc565b90506000816000815181106123ba576123ba61308b565b016020015160f81c905060006123d160028361345d565b6123dc90600261348d565b905060006123ed848360ff166128f0565b905060006123fb8b8a6128f0565b905060006124098383612926565b90508251825110156124835760405162461bcd60e51b815260206004820152603960248201527f4d65726b6c65547269653a20696e76616c6964206b6579206c656e677468206660448201527f6f72206c656166206f7220657874656e73696f6e206e6f6465000000000000006064820152608401610194565b60ff851660021480612498575060ff85166003145b156124e6578083511480156124ad5750808251145b156124bf576124bc818b6132da565b99505b604051806040016040528060018152602001600160ff1b8152509a50505050505050612627565b60ff851615806124f9575060ff85166001145b15612563578251811461252d57604051806040016040528060018152602001600160ff1b8152509a50505050505050612627565b61255488602001516001815181106125475761254761308b565b60200260200101516128ac565b9a50975061261f945050505050565b60405162461bcd60e51b815260206004820152603260248201527f4d65726b6c65547269653a2072656365697665642061206e6f64652077697468604482015271040c2dc40eadcd6dcdeeedc40e0e4caccd2f60731b6064820152608401610194565b60405162461bcd60e51b815260206004820152602860248201527f4d65726b6c65547269653a20726563656976656420616e20756e706172736561604482015267626c65206e6f646560c01b6064820152608401610194565b600101612138565b508561263386856128f0565b6040805180820190915260018152600160ff1b6020918201528651908701207f56e81f171bcc55a6ff8345e692c0f86e5b48e01b996cadc001622fb5e363b4211498509850985050505050505093509350939050565b60208101518051606091610664916126a3906001906132c7565b8151811061045a5761045a61308b565b60006002826001600160a01b031663200d2ed26040518163ffffffff1660e01b8152600401602060405180830381865afa1580156126f5573d6000803e3d6000fd5b505050506040513d601f19601f82011682018060405250810190612719919061343c565b600281111561272a5761272a613037565b0361273757506000919050565b6001826001600160a01b0316638980e0cc6040518163ffffffff1660e01b8152600401602060405180830381865afa158015612777573d6000803e3d6000fd5b505050506040513d601f19601f8201168201806040525081019061279b9190613396565b11156127a957506001919050565b6040516331bc0c2360e21b8152600060048201819052906001600160a01b0384169063c6f0308c9060240160e060405180830381865afa1580156127f1573d6000803e3d6000fd5b505050506040513d601f19601f8201168201806040525081019061281591906134a6565b505050505091505060006001600160a01b0316816001600160a01b0316146128405750600192915050565b50600092915050565b606080604051905082518060011b603f8101601f1916830160405280835250602084016020830160005b838110156128a1578060011b82018184015160001a8060041c8253600f811660018301535050600101612873565b509295945050505050565b606060208260000151106128c357611d618261097a565b610664826129a5565b60606106646128eb836020015160008151811061045a5761045a61308b565b612849565b60608251821061290f5750604080516020810190915260008152610664565b610374838384865161292191906132c7565b611d9b565b6000806000835185511061293b57835161293e565b84515b90505b8082108015612995575083828151811061295d5761295d61308b565b602001015160f81c60f81b6001600160f81b0319168583815181106129845761298461308b565b01602001516001600160f81b031916145b156106f557816001019150612941565b6060610664826020015160008460000151611cba565b6001600160a01b03811681146129d057600080fd5b50565b634e487b7160e01b600052604160045260246000fd5b604051606081016001600160401b0381118282101715612a0b57612a0b6129d3565b60405290565b604051608081016001600160401b0381118282101715612a0b57612a0b6129d3565b604051601f8201601f191681016001600160401b0381118282101715612a5b57612a5b6129d3565b604052919050565b60006001600160401b03821115612a7c57612a7c6129d3565b5060051b60200190565b600082601f830112612a9757600080fd5b8135612aaa612aa582612a63565b612a33565b8082825260208201915060208360051b860101925085831115612acc57600080fd5b602085015b838110156102d7578035835260209283019201612ad1565b60006001600160401b03821115612b0257612b026129d3565b50601f01601f191660200190565b600082601f830112612b2157600080fd5b8135612b2f612aa582612ae9565b818152846020838601011115612b4457600080fd5b816020850160208301376000918101602001919091529392505050565b600082601f830112612b7257600080fd5b8135612b80612aa582612a63565b8082825260208201915060208360051b860101925085831115612ba257600080fd5b602085015b838110156102d75780356001600160401b03811115612bc557600080fd5b612bd4886020838a0101612b10565b84525060209283019201612ba7565b600080600080600060a08688031215612bfb57600080fd5b8535612c06816129bb565b945060208601356001600160401b03811115612c2157600080fd5b612c2d88828901612a86565b94505060408601356001600160401b03811115612c4957600080fd5b612c5588828901612b61565b93505060608601356001600160401b03811115612c7157600080fd5b612c7d88828901612b10565b92505060808601356001600160401b03811115612c9957600080fd5b612ca588828901612b10565b9150509295509295909350565b60005b83811015612ccd578181015183820152602001612cb5565b50506000910152565b60008151808452612cee816020860160208601612cb2565b601f01601f19169290920160200192915050565b6000602082016020835280845180835260408501915060408160051b86010192506020860160005b82811015612d5b57603f19878603018452612d46858351612cd6565b94506020938401939190910190600101612d2a565b50929695505050505050565b600060208284031215612d7957600080fd5b81356001600160401b03811115612d8f57600080fd5b6104f784828501612b10565b6000602082016020835280845180835260408501915060408160051b86010192506020860160005b82811015612d5b57603f19878603018452612ddf858351612cd6565b94506020938401939190910190600101612dc3565b60008060408385031215612e0757600080fd5b8251612e12816129bb565b6020939093015192949293505050565b600082601f830112612e3357600080fd5b8151612e41612aa582612ae9565b818152846020838601011115612e5657600080fd5b6104f7826020830160208701612cb2565b600082601f830112612e7857600080fd5b8151612e86612aa582612a63565b8082825260208201915060208360051b860101925085831115612ea857600080fd5b602085015b838110156102d75780516001600160401b03811115612ecb57600080fd5b612eda886020838a0101612e22565b84525060209283019201612ead565b600060408284031215612efb57600080fd5b604080519081016001600160401b0381118282101715612f1d57612f1d6129d3565b806040525080915082516001600160401b03811115612f3b57600080fd5b612f4785828601612e22565b82525060208301516001600160401b03811115612f6357600080fd5b612f6f85828601612e67565b6020830152505092915050565b60008082840360e0811215612f9057600080fd5b60c0811215612f9e57600080fd5b612fa66129e9565b845160028110612fb557600080fd5b8152602085810151908201526080603f1983011215612fd357600080fd5b612fdb612a11565b6040868101518252606080880151602084015260808801518284015260a08801519083015282015260c085015190935090506001600160401b0381111561302157600080fd5b61302d85828601612ee9565b9150509250929050565b634e487b7160e01b600052602160045260246000fd5b608081016002861061306f57634e487b7160e01b600052602160045260246000fd5b9481526020810193909352604083019190915260609091015290565b634e487b7160e01b600052603260045260246000fd5b600081516130b3818560208601612cb2565b9290920192915050565b6000808554818160011c905060018216806130d957607f821691505b6020821081036130f757634e487b7160e01b84526022600452602484fd5b80801561310b576001811461312057613150565b60ff1984168752821515830287019450613150565b60008a81526020902060005b848110156131485781548982015260019091019060200161312c565b505082870194505b5050505061316181602f60f81b9052565b61316e60018201866130a1565b602f60f81b8152905061318460018201856130a1565b7417bdb9b2b73232b93e97bdb230ba30be973539b7b760591b81526015019695505050505050565b6000602082840312156131be57600080fd5b81516001600160401b038111156131d457600080fd5b6104f784828501612e67565b80516020808301519190811015613201576000198160200360031b1b821691505b50919050565b634e487b7160e01b600052601160045260246000fd5b60006001820161322f5761322f613207565b5060010190565b63ffffffff811681146129d057600080fd5b60006020828403121561325a57600080fd5b815161037481613236565b6001600160801b03811681146129d057600080fd5b6000606082840312801561328d57600080fd5b506132966129e9565b8251815260208301516132a881613265565b602082015260408301516132bb81613265565b60408201529392505050565b8181038181111561066457610664613207565b8082018082111561066457610664613207565b600083516132ff818460208801612cb2565b9190910191825250602001919050565b808202811582820484141761066457610664613207565b60008161333557613335613207565b506000190190565b60008060006060848603121561335257600080fd5b835161335d81613236565b60208501519093506001600160401b038116811461337a57600080fd5b604085015190925061338b816129bb565b809150509250925092565b6000602082840312156133a857600080fd5b5051919050565b6000602082840312156133c157600080fd5b8151610374816129bb565b6020808252604a908201527f524c505265616465723a206c656e677468206f6620616e20524c50206974656d60408201527f206d7573742062652067726561746572207468616e207a65726f20746f206265606082015269206465636f6461626c6560b01b608082015260a00190565b60006020828403121561344e57600080fd5b81516003811061037457600080fd5b600060ff83168061347e57634e487b7160e01b600052601260045260246000fd5b8060ff84160691505092915050565b60ff828116828216039081111561066457610664613207565b600080600080600080600060e0888a0312156134c157600080fd5b87516134cc81613236565b60208901519097506134dd816129bb565b60408901519096506134ee816129bb565b60608901519095506134ff81613265565b608089015160a08a0151919550935061351781613265565b60c089015190925061352881613265565b809150509295989194975092955056fe524c505265616465723a206c656e677468206f6620636f6e74656e74206d7573a2646970667358221220e45eba53887a951949491f6e09485e2245a6a008a0c238e5dae063279e65d80c64736f6c634300081c0033",
  "linkReferences": {},
  "deployedLinkReferences": {}
}