{
  "_format": "hh-sol-artifact-1",
  "contractName": "TestL1",
  "sourceName": "contracts/test/TestL1.sol",
  "abi": [
    {
      "inputs": [
        {
          "internalType": "contract IEVMVerifier",
          "name": "_verifier",
          "type": "address"
        },
        {
          "internalType": "address",
          "name": "_target",
          "type": "address"
        },
        {
          "internalType": "address",
          "name": "_optimismPortalAddress",
          "type": "address"
        },
        {
          "internalType": "uint256",
          "name": "_minAge",
          "type": "uint256"
        }
      ],
      "stateMutability": "nonpayable",
      "type": "constructor"
    },
    {
      "inputs": [
        {
          "internalType": "address",
          "name": "target",
          "type": "address"
        }
      ],
      "name": "AddressEmptyCode",
      "type": "error"
    },
    {
      "inputs": [],
      "name": "CommandTooLong",
      "type": "error"
    },
    {
      "inputs": [],
      "name": "FailedCall",
      "type": "error"
    },
    {
      "inputs": [
        {
          "internalType": "uint256",
          "name": "balance",
          "type": "uint256"
        },
        {
          "internalType": "uint256",
          "name": "needed",
          "type": "uint256"
        }
      ],
      "name": "InsufficientBalance",
      "type": "error"
    },
    {
      "inputs": [
        {
          "internalType": "uint256",
          "name": "value",
          "type": "uint256"
        },
        {
          "internalType": "uint256",
          "name": "max",
          "type": "uint256"
        }
      ],
      "name": "InvalidReference",
      "type": "error"
    },
    {
      "inputs": [
        {
          "internalType": "address",
          "name": "sender",
          "type": "address"
        },
        {
          "internalType": "string[]",
          "name": "urls",
          "type": "string[]"
        },
        {
          "internalType": "bytes",
          "name": "callData",
          "type": "bytes"
        },
        {
          "internalType": "bytes4",
          "name": "callbackFunction",
          "type": "bytes4"
        },
        {
          "internalType": "bytes",
          "name": "extraData",
          "type": "bytes"
        }
      ],
      "name": "OffchainLookup",
      "type": "error"
    },
    {
      "inputs": [
        {
          "internalType": "uint256",
          "name": "actual",
          "type": "uint256"
        },
        {
          "internalType": "uint256",
          "name": "expected",
          "type": "uint256"
        }
      ],
      "name": "ResponseLengthMismatch",
      "type": "error"
    },
    {
      "inputs": [
        {
          "internalType": "uint256",
          "name": "max",
          "type": "uint256"
        }
      ],
      "name": "TooManyCommands",
      "type": "error"
    },
    {
      "inputs": [
        {
          "internalType": "uint256",
          "name": "idx",
          "type": "uint256"
        }
      ],
      "name": "getHighscorer",
      "outputs": [
        {
          "internalType": "string",
          "name": "",
          "type": "string"
        }
      ],
      "stateMutability": "view",
      "type": "function"
    },
    {
      "inputs": [
        {
          "internalType": "bytes[]",
          "name": "values",
          "type": "bytes[]"
        },
        {
          "internalType": "bytes",
          "name": "",
          "type": "bytes"
        }
      ],
      "name": "getHighscorerCallback",
      "outputs": [
        {
          "internalType": "string",
          "name": "",
          "type": "string"
        }
      ],
      "stateMutability": "pure",
      "type": "function"
    },
    {
      "inputs": [],
      "name": "getLatest",
      "outputs": [
        {
          "internalType": "uint256",
          "name": "",
          "type": "uint256"
        }
      ],
      "stateMutability": "view",
      "type": "function"
    },
    {
      "inputs": [
        {
          "internalType": "bytes[]",
          "name": "values",
          "type": "bytes[]"
        },
        {
          "internalType": "bytes",
          "name": "",
          "type": "bytes"
        }
      ],
      "name": "getLatestCallback",
      "outputs": [
        {
          "internalType": "uint256",
          "name": "",
          "type": "uint256"
        }
      ],
      "stateMutability": "pure",
      "type": "function"
    },
    {
      "inputs": [],
      "name": "getLatestHighscore",
      "outputs": [
        {
          "internalType": "uint256",
          "name": "",
          "type": "uint256"
        }
      ],
      "stateMutability": "view",
      "type": "function"
    },
    {
      "inputs": [
        {
          "internalType": "bytes[]",
          "name": "values",
          "type": "bytes[]"
        },
        {
          "internalType": "bytes",
          "name": "",
          "type": "bytes"
        }
      ],
      "name": "getLatestHighscoreCallback",
      "outputs": [
        {
          "internalType": "uint256",
          "name": "",
          "type": "uint256"
        }
      ],
      "stateMutability": "pure",
      "type": "function"
    },
    {
      "inputs": [],
      "name": "getLatestHighscorer",
      "outputs": [
        {
          "internalType": "string",
          "name": "",
          "type": "string"
        }
      ],
      "stateMutability": "view",
      "type": "function"
    },
    {
      "inputs": [
        {
          "internalType": "bytes[]",
          "name": "values",
          "type": "bytes[]"
        },
        {
          "internalType": "bytes",
          "name": "",
          "type": "bytes"
        }
      ],
      "name": "getLatestHighscorerCallback",
      "outputs": [
        {
          "internalType": "string",
          "name": "",
          "type": "string"
        }
      ],
      "stateMutability": "pure",
      "type": "function"
    },
    {
      "inputs": [],
      "name": "getName",
      "outputs": [
        {
          "internalType": "string",
          "name": "",
          "type": "string"
        }
      ],
      "stateMutability": "view",
      "type": "function"
    },
    {
      "inputs": [
        {
          "internalType": "bytes[]",
          "name": "values",
          "type": "bytes[]"
        },
        {
          "internalType": "bytes",
          "name": "",
          "type": "bytes"
        }
      ],
      "name": "getNameCallback",
      "outputs": [
        {
          "internalType": "string",
          "name": "",
          "type": "string"
        }
      ],
      "stateMutability": "pure",
      "type": "function"
    },
    {
      "inputs": [
        {
          "internalType": "string",
          "name": "_name",
          "type": "string"
        }
      ],
      "name": "getNickname",
      "outputs": [
        {
          "internalType": "string",
          "name": "",
          "type": "string"
        }
      ],
      "stateMutability": "view",
      "type": "function"
    },
    {
      "inputs": [
        {
          "internalType": "bytes[]",
          "name": "values",
          "type": "bytes[]"
        },
        {
          "internalType": "bytes",
          "name": "",
          "type": "bytes"
        }
      ],
      "name": "getNicknameCallback",
      "outputs": [
        {
          "internalType": "string",
          "name": "",
          "type": "string"
        }
      ],
      "stateMutability": "pure",
      "type": "function"
    },
    {
      "inputs": [],
      "name": "getPrimaryNickname",
      "outputs": [
        {
          "internalType": "string",
          "name": "",
          "type": "string"
        }
      ],
      "stateMutability": "view",
      "type": "function"
    },
    {
      "inputs": [
        {
          "internalType": "bytes[]",
          "name": "values",
          "type": "bytes[]"
        },
        {
          "internalType": "bytes",
          "name": "",
          "type": "bytes"
        }
      ],
      "name": "getPrimaryNicknameCallback",
      "outputs": [
        {
          "internalType": "string",
          "name": "",
          "type": "string"
        }
      ],
      "stateMutability": "pure",
      "type": "function"
    },
    {
      "inputs": [
        {
          "internalType": "bytes",
          "name": "response",
          "type": "bytes"
        },
        {
          "internalType": "bytes",
          "name": "extradata",
          "type": "bytes"
        }
      ],
      "name": "getStorageSlotsCallback",
      "outputs": [],
      "stateMutability": "nonpayable",
      "type": "function"
    },
    {
      "inputs": [],
      "name": "getVerifierData",
      "outputs": [
        {
          "internalType": "bytes",
          "name": "",
          "type": "bytes"
        }
      ],
      "stateMutability": "view",
      "type": "function"
    },
    {
      "inputs": [],
      "name": "getZero",
      "outputs": [
        {
          "internalType": "uint256",
          "name": "",
          "type": "uint256"
        }
      ],
      "stateMutability": "view",
      "type": "function"
    },
    {
      "inputs": [
        {
          "internalType": "bytes[]",
          "name": "values",
          "type": "bytes[]"
        },
        {
          "internalType": "bytes",
          "name": "",
          "type": "bytes"
        }
      ],
      "name": "getZeroCallback",
      "outputs": [
        {
          "internalType": "uint256",
          "name": "",
          "type": "uint256"
        }
      ],
      "stateMutability": "pure",
      "type": "function"
    }
  ],
  "bytecode": "0x6080604052348015600f57600080fd5b50604051611808380380611808833981016040819052602c916087565b600080546001600160a01b03199081166001600160a01b039687161790915560018054821694861694909417909355600280549093169190931617905560035560d3565b6001600160a01b0381168114608457600080fd5b50565b60008060008060808587031215609c57600080fd5b845160a5816070565b602086015190945060b4816070565b604086015190935060c3816070565b6060959095015193969295505050565b611726806100e26000396000f3fe608060405234801561001057600080fd5b50600436106101165760003560e01c80639a04195c116100a2578063c36af46011610071578063c36af460146101ee578063cede75ff146101f6578063cf8b600c146101b8578063e25b8ad214610175578063f9c0f381146101b857600080fd5b80639a04195c146101a55780639d47b003146101cb5780639f3f89dc146101de578063b42b9a1a146101e657600080fd5b80632eec0202116100e95780632eec0202146101755780634eca638c146101885780635bdaa916146101905780636781228a146101a557806379f01bd1146101b857600080fd5b8063088d0cf01461011b5780630b4ce80b1461014457806310899d101461014c57806317d7de7c1461016d575b600080fd5b61012e610129366004610d8d565b6101fe565b60405161013b9190610e2d565b60405180910390f35b61012e610265565b61015f61015a366004610f0f565b6102bf565b60405190815260200161013b565b61012e6102f8565b61012e610183366004610f0f565b61033e565b61015f610363565b6101a361019e366004610fbe565b6103bb565b005b61015f6101b3366004610f0f565b6104fc565b61012e6101c6366004610f0f565b610511565b61012e6101d936600461102d565b610526565b61015f61057a565b61012e6105c2565b61015f6105f8565b61012e61063f565b60606102606379f01bd160e01b604051806020016040528060008152506102236105c2565b6000546001546102589188916102529160049161024c916001600160a01b03908116911661068f565b90610729565b906107dd565b929190610824565b919050565b60606102bc63e25b8ad260e01b6040518060200160405280600081525061028a6105c2565b600080546001805461025893926102b69260049261024c9283916001600160a01b03918216911661068f565b90610964565b90565b6000826001815181106102d4576102d4611046565b60200260200101518060200190518101906102ef919061105c565b90505b92915050565b60606102bc63f9c0f38160e01b6040518060200160405280600081525061031d6105c2565b600054600180546102589261024c916001600160a01b03918216911661068f565b60608260018151811061035357610353611046565b6020026020010151905092915050565b60006102bc6310899d1060e01b604051806020016040528060008152506103886105c2565b6000805460015461025892916102b6916002916103b591859183916001600160a01b03918216911661068f565b906109e7565b60006103c984860186611075565b905060008080808080806103df898b018b611136565b96509650965096509650965096506000876001600160a01b0316638e0ff0788888888d876040518663ffffffff1660e01b81526004016104239594939291906112bc565b600060405180830381865afa158015610440573d6000803e3d6000fd5b505050506040513d6000823e601f3d908101601f191682016040526104689190810190611356565b9050855181511461049e5780518651604051632918942560e01b8152600481019290925260248201526044015b60405180910390fd5b60006104f2858386866040516024016104b99392919061141f565b60408051601f198184030181529190526020810180516001600160e01b03166001600160e01b0319909316929092179091523090610a5d565b9050805160208201f35b6000826000815181106102d4576102d4611046565b60608260008151811061035357610353611046565b606061026063cf8b600c60e01b6040518060200160405280600081525061054b6105c2565b6000546001546102589188916105749160039161024c916001600160a01b03908116911661068f565b90610a6b565b60006102bc636781228a60e01b6040518060200160405280600081525061059f6105c2565b600054600154610258916005916103b5916001600160a01b03908116911661068f565b600254600354604080516001600160a01b0390931660208401528201526060908101604051602081830303815290604052905090565b60006102bc639a04195c60e01b6040518060200160405280600081525061061d6105c2565b6000805460015461025892916103b5916001600160a01b03918216911661068f565b60606102bc632eec020260e01b604051806020016040528060008152506106646105c2565b6000805460015461025892916102b69160039161024c9185916103b5916001600160a01b0391821691165b610697610ca1565b6040805160208082526104208201909252600091808201610400803683375050604080516020808252610420820190925292935060009291508082015b60608152602001906001900390816106d45790505060008084528082526040805160a0810182526001600160a01b03808a16825288166020820152908101949094526060840152608083015250905092915050565b610731610ca1565b60408301518051801580159061074b575060208560600151105b1561075b5761075b8560ff610ab3565b6001810182526020856040015151111561078b57604051630251ce0160e31b815260206004820152602401610495565b6000606086015261079d856001610ab3565b6107d4856107cc87876040516020016107b891815260200190565b604051602081830303815290604052610b3c565b604017610ab3565b50929392505050565b6107e5610ca1565b602083606001511061080a57604051631601fac760e31b815260040160405180910390fd5b61081d836108188585610b3c565b610ab3565b5090919050565b600084604001515111801561083d575060208460600151105b1561084d5761084d8460ff610ab3565b83516040516331db0f6b60e21b815230916001600160a01b03169063c76c3dac9061087c908590600401610e2d565b600060405180830381865afa158015610899573d6000803e3d6000fd5b505050506040513d6000823e601f3d908101601f191682016040526108c19190810190611462565b8560200151866040015187608001516040516024016108e293929190611520565b60408051601f19818403018152918152602080830180516001600160e01b031663ea9cd3bf60e01b1790528851898201518a84015160808c01519451632ded548b60e11b956109399590918d918d918d9101611556565b60408051601f1981840301815290829052630556f18360e41b825261049595949392916004016115da565b61096c610ca1565b602083606001511061099157604051631601fac760e31b815260040160405180910390fd5b8260400151518260ff1611806109aa5750601f8260ff16115b156109da576040808401515190516280ac3760e51b815260ff841660048201526024810191909152604401610495565b61081d8383602017610ab3565b6109ef610ca1565b604083015180518015801590610a09575060208560600151105b15610a1957610a198560ff610ab3565b60018101825260208560400151511115610a4957604051630251ce0160e31b815260206004820152602401610495565b60006060860181905261079d908690610ab3565b60606102ef83836000610b76565b610a73610ca1565b6020836060015110610a9857604051631601fac760e31b815260040160405180910390fd5b61081d8361081885856040516020016107b891815260200190565b60006001836040015151610ac79190611691565b606084018051919250610ad9826116a4565b9052610ae69060086116bd565b8260f81b6001600160f81b031916901c83604001518281518110610b0c57610b0c611046565b60200260200101511783604001518281518110610b2b57610b2b611046565b602002602001018181525050505050565b60808201518051600181018083529091908390829060ff8516908110610b6457610b64611046565b60200260200101819052505092915050565b606081471015610ba25760405163cf47918160e01b815247600482015260248101839052604401610495565b600080856001600160a01b03168486604051610bbe91906116d4565b60006040518083038185875af1925050503d8060008114610bfb576040519150601f19603f3d011682016040523d82523d6000602084013e610c00565b606091505b5091509150610c10868383610c1c565b925050505b9392505050565b606082610c3157610c2c82610c78565b610c15565b8151158015610c4857506001600160a01b0384163b155b15610c7157604051639996b31560e01b81526001600160a01b0385166004820152602401610495565b5080610c15565b805115610c885780518082602001fd5b60405163d6bda27560e01b815260040160405180910390fd5b6040518060a0016040528060006001600160a01b0316815260200160006001600160a01b031681526020016060815260200160008152602001606081525090565b634e487b7160e01b600052604160045260246000fd5b604051601f8201601f191681016001600160401b0381118282101715610d2057610d20610ce2565b604052919050565b60006001600160401b03821115610d4157610d41610ce2565b50601f01601f191660200190565b6000610d62610d5d84610d28565b610cf8565b9050828152838383011115610d7657600080fd5b828260208301376000602084830101529392505050565b600060208284031215610d9f57600080fd5b81356001600160401b03811115610db557600080fd5b8201601f81018413610dc657600080fd5b610dd584823560208401610d4f565b949350505050565b60005b83811015610df8578181015183820152602001610de0565b50506000910152565b60008151808452610e19816020860160208601610ddd565b601f01601f19169290920160200192915050565b6020815260006102ef6020830184610e01565b60006001600160401b03821115610e5957610e59610ce2565b5060051b60200190565b600082601f830112610e7457600080fd5b6102ef83833560208501610d4f565b600082601f830112610e9457600080fd5b8135610ea2610d5d82610e40565b8082825260208201915060208360051b860101925085831115610ec457600080fd5b602085015b83811015610f055780356001600160401b03811115610ee757600080fd5b610ef6886020838a0101610e63565b84525060209283019201610ec9565b5095945050505050565b60008060408385031215610f2257600080fd5b82356001600160401b03811115610f3857600080fd5b610f4485828601610e83565b92505060208301356001600160401b03811115610f6057600080fd5b610f6c85828601610e63565b9150509250929050565b60008083601f840112610f8857600080fd5b5081356001600160401b03811115610f9f57600080fd5b602083019150836020828501011115610fb757600080fd5b9250929050565b60008060008060408587031215610fd457600080fd5b84356001600160401b03811115610fea57600080fd5b610ff687828801610f76565b90955093505060208501356001600160401b0381111561101557600080fd5b61102187828801610f76565b95989497509550505050565b60006020828403121561103f57600080fd5b5035919050565b634e487b7160e01b600052603260045260246000fd5b60006020828403121561106e57600080fd5b5051919050565b60006020828403121561108757600080fd5b81356001600160401b0381111561109d57600080fd5b610dd584828501610e63565b80356001600160a01b038116811461026057600080fd5b600082601f8301126110d157600080fd5b81356110df610d5d82610e40565b8082825260208201915060208360051b86010192508583111561110157600080fd5b602085015b83811015610f05578035835260209283019201611106565b80356001600160e01b03198116811461026057600080fd5b600080600080600080600060e0888a03121561115157600080fd5b61115a886110a9565b9650611168602089016110a9565b955060408801356001600160401b0381111561118357600080fd5b61118f8a828b016110c0565b95505060608801356001600160401b038111156111ab57600080fd5b6111b78a828b01610e83565b9450506111c66080890161111e565b925060a08801356001600160401b038111156111e157600080fd5b6111ed8a828b01610e63565b92505060c08801356001600160401b0381111561120957600080fd5b6112158a828b01610e63565b91505092959891949750929550565b600081518084526020840193506020830160005b82811015611256578151865260209586019590910190600101611238565b5093949350505050565b600082825180855260208501945060208160051b8301016020850160005b838110156112b057601f1985840301885261129a838351610e01565b602098890198909350919091019060010161127e565b50909695505050505050565b6001600160a01b038616815260a0602082018190526000906112e090830187611224565b82810360408401526112f28187611260565b905082810360608401526113068186610e01565b9050828103608084015261131a8185610e01565b98975050505050505050565b6000611334610d5d84610d28565b905082815283838301111561134857600080fd5b610c15836020830184610ddd565b60006020828403121561136857600080fd5b81516001600160401b0381111561137e57600080fd5b8201601f8101841361138f57600080fd5b805161139d610d5d82610e40565b8082825260208201915060208360051b8501019250868311156113bf57600080fd5b602084015b838110156114145780516001600160401b038111156113e257600080fd5b8501603f810189136113f357600080fd5b61140589602083015160408401611326565b845250602092830192016113c4565b509695505050505050565b6060815260006114326060830186611260565b82810360208401526114448186610e01565b905082810360408401526114588185610e01565b9695505050505050565b60006020828403121561147457600080fd5b81516001600160401b0381111561148a57600080fd5b8201601f8101841361149b57600080fd5b80516114a9610d5d82610e40565b8082825260208201915060208360051b8501019250868311156114cb57600080fd5b602084015b838110156114145780516001600160401b038111156114ee57600080fd5b8501603f810189136114ff57600080fd5b61151189602083015160408401611326565b845250602092830192016114d0565b6001600160a01b038416815260606020820181905260009061154490830185611224565b82810360408401526114588185611260565b6001600160a01b0388811682528716602082015260e06040820181905260009061158290830188611224565b82810360608401526115948188611260565b6001600160e01b03198716608085015283810360a085015290506115b88186610e01565b905082810360c08401526115cc8185610e01565b9a9950505050505050505050565b600060a0820160018060a01b038816835260a0602084015280875180835260c08501915060c08160051b86010192506020890160005b828110156116415760bf1987860301845261162c858351610e01565b94506020938401939190910190600101611610565b5050505082810360408401526116578187610e01565b6001600160e01b0319861660608501529050828103608084015261131a8185610e01565b634e487b7160e01b600052601160045260246000fd5b818103818111156102f2576102f261167b565b6000600182016116b6576116b661167b565b5060010190565b80820281158282048414176102f2576102f261167b565b600082516116e6818460208701610ddd565b919091019291505056fea2646970667358221220a7aeb791d41e6b801bfed7c43b543679aac4ea53042c0741c2914cad2b344c2c64736f6c634300081c0033",
  "linkReferences": {},
  "deployedLinkReferences": {}
}